:100CA300C0F9A4B0999282F88090BFFFC18EC68923
:010CB3008CB4
:100AE3000921000102030405060708014100014032
:100AF30000022F0000012E0002360000C10102385F
:100B0300000002330064022A0000013500013200B4
:050B1300C100013100EA
:0F0C6200EFFD7C00E53DFEE42DF53DEC3EF53C5D
:080C71007F3B7E5ADEFEDFFC32
:010C79002258
:0E0CC3008D8053A01FEF42A08D8053A01F22F2
:100C15007DFF7F80120CC3E4FD7FA0120CC37DFF16
:0A0C25007FC0120CC37FE0020CC375
:10006600E52E704875220E75230B75240B75250B2E
:10007600AE2FAF307C037DE812061B8F26AE2FAF66
:10008600307C007D6412061B7C007D0A12061B8DE7
:1000960027AE2FAF307C007D0A12061B7C007D0A3E
:1000A60012061B8D28AE2FAF3002043AE52E6401EE
:1000B600703375220C75230B75240B75250B75266D
:1000C6000B75270BAE38AF39FC7D6412061B7C001E
:1000D6007D0A12061B8D28AE38AF397C007D0A12C8
:1000E600061B02043AE52E64026003020211752221
:1000F6000D75230B75240BAE36AF377C277D10129A
:10010600061B7C007D0A12061BED4C60458D25AE54
:1001160036AF377C037DE812061B7C007D0A12068B
:100126001B8D26AE36AF377C007D6412061B7C0025
:100136007D0A12061B8D27AE36AF377C007D0A126C
:10014600061B7C007D0A12061B8D28AE36AF3702D1
:10015600043AAE36AF377C037DE812061B7C007D81
:100166000A12061BED4C603475250B8D26AE36AF94
:10017600377C007D6412061B7C007D0A12061B8DEF
:1001860027AE36AF377C007D0A12061B7C007D0A3F
:1001960012061B8D28AE36AF3702043AAE36AF379D
:1001A6007C007D6412061B7C007D0A12061BED4C4A
:1001B600602375250B75260B8D27AE36AF377C0071
:1001C6007D0A12061B7C007D0A12061B8D28AE36A0
:1001D600AF3702043AAE36AF377C007D0A12061BF3
:1001E6007C007D0A12061BED4C600D75250B7526ED
:1001F6000B75270B8D28800C75250175260B752729
:100206000B75280BAE36AF3702043AE52E64036051
:100216000302040BE535704875220F75230E75240D
:100226000B75250BAE3AAF3B7C037DE812061B8FA0
:1002360026AE3AAF3B7C007D6412061B7C007D0A2D
:1002460012061B8D27AE3AAF3B7C007D0A12061BB9
:100256007C007D0A12061B8D28AE3AAF3B02043A9B
:10026600E5356401703375220F75230C75240B7503
:10027600250B75260B75270BAE3EAF3FFC7D641232
:10028600061B7C007D0A12061B8D28AE3EAF3F7C06
:10029600007D0A12061B02043AE535640260030279
:1002A600044375220D75230B75240BAE36AF377CD0
:1002B600277D1012061B7C007D0A12061BED4C6082
:1002C60057AE3CAF3D7C277D1012061B7C007D0A95
:1002D60012061B8D25AE3CAF3D7C037DE812061B46
:1002E6007C007D0A12061B8D26AE3CAF3D7C007D50
:1002F6006412061B7C007D0A12061B8D27AE3CAFDE
:100306003D7C007D0A12061B7C007D0A12061B8DB1
:1003160028AE3CAF3D02043AAE36AF377C037DE8EB
:1003260012061B7C007D0A12061BED4C60467525E5
:100336000BAE3CAF3D7C037DE812061B7C007D0ABC
:1003460012061B8D26AE3CAF3D7C007D6412061B5B
:100356007C007D0A12061B8D27AE3CAF3D7C007DDE
:100366000A12061B7C007D0A12061B8D28AE3CAFC6
:100376003D02043AAE36AF377C007D6412061B7C24
:10038600007D0A12061BED4C603475250B75260B95
:10039600AE3CAF3D7C007D6412061B7C007D0A12DC
:1003A600061B8D27AE3CAF3D7C007D0A12061B7CEA
:1003B600007D0A12061B8D28AE3CAF3D8076AE3618
:1003C600AF377C007D0A12061B7C007D0A12061BD5
:1003D600ED4C601F75250B75260B75270BAE3CAFD4
:1003E6003D7C007D0A12061B7C007D0A12061B8DD1
:1003F60028800C75250175260B75270B75280BAE05
:100406003CAF3D802FE52E640470327522107523B3
:100416000B75240B75250B75260B75270BAE33AFA5
:1004260034FC7D6412061B8F28AE33AF347C007D0E
:0E0436000A12061B7C007D0A12061B8D29226D
:10067E00E5B0540FFF640F601DE5407019120C7148
:10068E00E5B0540FFF640F700302080BE5406003E2
:10069E0002080B8F4022EF640F600302080BE54047
:1006AE00700302080B120C71E5B0540F640F600357
:1006BE0002080BE540700302080B24F970030207D1
:1006CE00E924FC700302079C24FE602D14600302D3
:1006DE000808E52E6404600C752E0475330075341D
:1006EE000A020808E4F52EE533FD7F06120C2F12E0
:1006FE000C71AD347F070207E1E52E64036068E5F7
:10070E002E64046062852E35752E03E4FF120BB93C
:10071E00753C008F3D120C717F01120BB9120C62E9
:10072E007F02120BB9753A008F3B120C717F0312C8
:10073E000BB9EFFD7C00E53BFEE42DF53BEC3EF501
:10074E003A120C717F04120BB9753E008F3F120CDA
:10075E00717F05120BB9EFFD7C00E53FFEE42DF530
:10076E003FEC3EF53E806FE52E6404600302080800
:10077E00F52AF52BF532C3E53494F4E533940150A4
:10078E0079740A2534F534E43533F533806CE52E6F
:10079E0064036066E52E64046060E536FDE4FF12D6
:1007AE000C2F120C71AD377F01120C2F120C71E54C
:1007BE002FFD7F02120C2F120C71AD307F03120C25
:1007CE002F120C71E538FD7F04120C2F120C71AD37
:1007DE00397F05120C2F120C71801FE52E14600F3D
:1007EE0014601114601124037010752E01800B75A6
:0D07FE002E028006E4F52EE4F52EE4F54011
:01080B0022CA
:0D0CD100438E0475D72075D6D1438E1022B6
:0300630002080C84
:10080C00C0E0C083C082C0D075D000C000C003C09F
:07081C0004C005C006C0077F
:100823007CFF900CAEE493FD7FE0120CC3AF4174E8
:1008330001A807088002C333D8FCFD7FC0120CC394
:10084300E52EB40304E5356004E52E7007E541B4F5
:100853000502801CE52E64016011E52E6404600B23
:10086300E52E64037016E535B40111E541B4060CB9
:100873002422F8E6900CA393547F800A7422254126
:10088300F8E6900CA393FD7FE0120CC30541E5410C
:10089300C394084003754100052DE52D7002052C16
:1008A300C394E8E52C9403401EC28C752C00752D6F
:1008B30000AF8CEFFEAD8AEDFBEEF536EBF5377549
:1008C3008C00758A00D28CE52E64047041E540B437
:1008D3000D3CC3E52B9420E52A9403500A052BE530
:1008E3002B702B052A8027C3E53494F4E533940158
:1008F300501CE52EB404170532E532C39464400E50
:10090300753200740A2534F534E43533F533E52EB6
:1009130070055304FE8012E52EB401055304FD80D7
:1009230008E52EB402035304FBD3E5399534E538C7
:100933009533401BE52E600964026005E52EB40182
:100943000E0531E531C394C84005753100B200C3CB
:10095300E5399534E5389533400EE52E600C640295
:100963006008E52E64016002C20030000353047F77
:07097300AD047F80120CC3EC
:10097A00D007D006D005D004D003D000D0D0D08282
:05098A00D083D0E03233
:100C9000438E805389F0438904E4F58AF58CC28D34
:030CA000C28C22E1
:10098F00120C15120CD1120C9043AF04D2AFE4FF2E
:10099F00120BB9753C008F3D120C717F01120BB910
:1009AF00120C627F02120BB9753A008F3B120C7159
:1009BF007F03120BB9EFFD7C00E53BFEE42DF53B09
:1009CF00EC3EF53A120C717F04120BB9753E008F95
:1009DF003F120C717F05120BB9EFFD7C00E53FFE56
:1009EF00E42DF53FEC3EF53E120C717F06120BB96C
:1009FF007533008F34120C717F07120BB9EFFD7C2A
:100A0F0000E534FEE42DF534EC3EF533120C711293
:100A1F00067E120003E4FBFA79C8784212044412EE
:100A2F0005888E2F8F307F03120B45AC07E412051C
:100A3F00547B487AE179FA783F1204441205888E84
:080A4F00388F3912006680C7E0
:10000300120B707FCC12003C7F4412003C120B7029
:100013007FCC12003C7FBE12003C120B978F08125C
:100023000B97EFFEE508FFFDAC06E412054FE4FB7A
:08003300FA7980783D120444C3
:01003B0022A2
:02003C008F092A
:10003E00E4F50AC294E509139294120C7AD294E56F
:10004E0009C313F509050AE50AC3940840E57F05BF
:05005E007E00020C7E93
:100B9700E4F509C294E50AC313F50AD29430940325
:100BA700430A80120C7A0509E509C3940840E4AFAB
:010BB7000A33
:010BB800221A
:100B7000C202D2947F0C7E00120C7EC2947F507E03
:100B800000120C7ED2947F0A7E00120C7EA29492F8
:060B900002120C7AA20221
:010B9600223C
:040C7A007F057E0074
:100C7E007C007D0A120609EF1FAC0670011E4C7037
:020C8E00F6224C
:040CDE00D2A07F32EF
:080CE20000AE071FEE70F922BD
:0F0CB400D2A1120CDEC2A17F32120CE2C2A0222A
:0C0CEA00C2A1120CDED2A17F32020CE28B
:070BDA00120BF8AD07D20277
:100BE100C2A0A20292A17F32120CE2120CDEC2A0BC
:070BF100D2A17F32020CE2E9
:080C4900120CB47FA0120B197C
:100C5100120CDEA2A19202C2A07F32120CE2A20209
:010C61002270
:020B1900AD0726
:100B1B00E4FCC2A07F32120CE2ED30E704D2A180DC
:100B2B0002C2A17F32120CE2D2A0ED25E0FD7F3292
:090B3B00120CE20CBC08DBC2A0A4
:010B4400228E
:100BF800E4FC120CDEED25E0FD30A103430501C243
:0C0C0800A07F32120CE20CBC08E8AF0523
:010C140022BD
:100C2F00AB05AA07120C49AF02120B19120C51AFE8
:0A0C3F0003120B19120C51020CEA0B
:020BB900AB0788
:100BBB00120C49AF03120B19120C51120CB47FA17A
:0E0BCB00120B19120C51120BDA120CEAAF05C4
:010BD90022F9
:020B4500AB07FC
:100B4700120CB47F90120B19120C51EB4440FF1298
:100B57000B19120C51120CB47F91120B19120C5174
:080B6700120BDA120CEAAF05D3
:010B6F002263
:10044400EC4D6011E8497017ED33EC3304600DE4B2
:10045400FCFFFEFD22E933E8330470F80205F412D0
:1004640005BF58046009E4CC2481500628500902D1
:1004740005FE2840030205FBC0E0EB4A7044B98046
:1004840006D0E0FB0205EAEF4E701CBD8008EBFFCE
:10049400EAFEE9FD80EBE98DF0A4FEE5F002052D0E
:1004A400E9CDF9EAFEEBFFEF89F0A4FCE5F0CE8993
:1004B400F0A42EFFE435F0CD89F0A42DFEE435F050
:1004C4008067EF4E7005BD80D780C3EF8BF0A4AC7E
:1004D400F0EE8BF0A42CFCE435F0F8EF8AF0A42CB9
:1004E400E5F038FCE433CB8DF0A42CFCE5F03BF8CC
:1004F400EE8AF0A42CFCE5F038F8E433CF89F0A4BC
:100504002CFCE5F038CF3400CE89F0A42FFFE5F0C1
:100514003EFEE433C98DF0A42EFEE5F039CD8AF019
:10052400A42FFFE5F03EFEE43DFD33D0E0FB500791
:100534000BBB000F0205FEEC2CFCEF33FFEE33FE89
:06054400ED33FD0205D6B7
:10054A0075F020800E75F010800575F0087D007E2C
:10055A00007F003392D530D503120670EC33401079
:10056A00EF33FFEE33FEED33FDEC33FCD5F0ED2235
:0E057A00E5F0247EA2D513CC92E7CDCEFF2271
:10058800EDD2E7CD33EC3392D524814006E4FFFE6B
:10059800FDFC22FCE4CFCECDCC24E0501174FF80CA
:1005A800EDC3CC13CCCD13CDCE13CECF13CF047067
:0705B800F030D5DE020670F1
:1005BF00E9D2E7C933E833F892D5EDD2E7CD33EC82
:0705CF0033FC5002B2D522FB
:1005D600EC30E7100FBF000C0EBE00080DBD000486
:1005E6000BEB6014A2D5EB13FCED92E7FD2274FF32
:1005F600FCFDFEFF22E480F8A2D574FF13FC7D808B
:03060600E480EF9E
:03000000020A579A
:0C0A5700787FE4F6D8FD758141020A9E0C
:10060900EF8DF0A4A8F0CF8CF0A428CE8DF0A42E05
:02061900FE22BF
:10061B00BC000BBE0029EF8DF084FFADF022E4CCC3
:10062B00F875F008EF2FFFEE33FEEC33FCEE9DEC8C
:10063B00984005FCEE9DFE0FD5F0E9E4CEFD22EDD2
:10064B00F8F5F0EE8420D21CFEADF075F008EF2F1C
:10065B00FFED33FD4007985006D5F0F222C398FD0D
:05066B000FD5F0EA22AA
:0E067000C3E49FFFE49EFEE49DFDE49CFC229B
:100A630002098FE493A3F8E493A34003F68001F211
:100A730008DFF48029E493A3F85407240CC8C33394
:100A8300C4540F4420C8834004F456800146F6DF63
:100A9300E4800B0102040810204080900AE3E47E06
:100AA300019360BCA3FF543F30E509541FFEE49358
:100AB300A360010ECF54C025E060A840B8E493A31F
:100AC300FAE493A3F8E493A3C8C582C8CAC583CA4A
:100AD300F0A3C8C582C8CAC583CADFE9DEE780BE02
:010B180000DC
:00000001FF
