:0C07F500C0F9A4B0999282F88090BFFF78
:100003000923000102030405060708013900013A28
:1000130000012200C103C106C105022F0000C10770
:10002300C108C102C101C10402360000C100013888
:1000330002012E04023B0000012D00012C000233BB
:020043000000BB
:080819007F3B7E5ADEFEDFFC8E
:0108210022B4
:0E07DA008D8053A01FEF42A08D8053A01F22E0
:10076D007DFF7F801207DAE4FD7FA01207DA7DFF9F
:0A077D007FC01207DA7FE00207DAFE
:1004E100E52C703475240175250B75260BE53575E2
:1004F100F00A8475F00A8485F027E53575F00A84E1
:1005010085F02875290B752A0BE535D3941E500407
:10051100752B0122752B0222E52CB4011E752402D4
:1005210075250B75260B75270B75280B75290BE5A2
:100531002D75F00A84F52AE52D8032E52C640260E0
:1005410005E52CB4032E75240375250B75260BE5E3
:100551003875F00A84F527E53875F00A8485F028A6
:1005610075290BE52E75F00A84F52AE52E75F00A3A
:050571008485F02B223F
:1003DE00E5B0540FFF640F601DE53970191208194E
:1003EE00E5B0540FFF640F70030204E0E5396003BB
:1003FE000204E08F3922EF640F60030204E0E53956
:10040E0070030204E0120819E5B0540F640F600384
:10041E000204E0E53970030204E024F9607A24FC5A
:10042E00606624FE60341460030204DDE52CB40221
:10043E00120538E538C3940B50030204DD753801FC
:10044E000204DDE52C640360030204DD052EE52EB7
:10045E00C3940B407A752E018075E52C6003B401B0
:10046E0005752C028069E52CB40205752C03805F9E
:10047E00E4F52CAD38FF120787120819AD2E7F0157
:10048E001207871208198047300644B2053005045A
:10049E00C201803BD2018037200534200631C3E5EE
:1004AE00329490E53194015026C3E5329464E531DF
:1004BE009400401B752C01D206E4F533F534D201BD
:1004CE00E535D3941E500585382D8003852E2DE4F9
:0204DE00F539EE
:0104E00022F9
:0D07E800438E0475D72075D6D1438E1022A4
:030063000202395D
:10023900C0E0C083C082C0D075D000C000C005C076
:0302490006C007E5
:10024C007EFFAF3A7401A807088002C333D8FCFDC7
:10025C007FC01207DA0537E53770020536C394F410
:10026C00E53694014008753600753700B200E52C70
:10027C0064027020E53A64036006E53A6404701485
:10028C0030000B7424253AF8E69007F58049900865
:10029C0000E48043E52C64037020E53A64066006B4
:1002AC00E53A6407701430000B7424253AF8E69094
:1002BC0007F58004900800E4801DC3E5329464E5E2
:1002CC003194005009E52C700590080080097424C5
:1002DC00253AF8E69007F593FD7FE01207DA053A28
:1002EC00E53AC394084003753A00200524300621F2
:1002FC000534E53470020533C394E8E533940340C8
:10030C0010753300753400D52D07C206C201752C4B
:10031C00000522E522C394C84005752200D203C310
:10032C00E5329490E53194014004D2088017C3E57E
:10033C00329464E531940050075306FEC2088005E0
:10034C005306FDC2080530E5307002052FC394F446
:10035C00E52F94014010752F00753000300802B263
:10036C0007300502B20430070BC3E5329490E53137
:10037C009401500543060480035306FB300403200C
:10038C00050543060880035306F7AD067F80120768
:10039C00DAC3E5329490E53194014004D202800234
:1003AC00C2023002073001047D5080103002047DFF
:1003BC004080093001047D108002E4FD7FA012070B
:0103CC00DA56
:1003CD00D007D006D005D000D0D0D082D083D0E0D9
:0103DD0032ED
:1007BA00538EBF53890F758BF4758DFFC28FC28E0E
:0107CA00220C
:0306770030035EEF
:10067A0075080AC203C290758BF4758DFFD28EAFCE
:10068A00081508EF600C308FFDC28FA290B39290CC
:10069A0080EDC28EE4F58BF58DD28E208F032091EA
:1006AA00FAC28E308F04C28F8021AF8DEFAD8BFCE2
:1006BA00E41201717B967A43798B783C12006612B8
:0E06CA0001AA8F35E535D3946340037535637F
:0106D80022FF
:1006020012076D1207BA1207E843AF04D2AFE4FF34
:1006120012072E8F38E538D3940A40037538027FCB
:100622000112072E8F2EE52ED3940A4003752E0257
:100632007F03120705AC07E41201767B487AE17961
:10064200FA783F1200661201AA8E318F327F0312AE
:100652000705AC07E41201767B487AE179FA783F24
:100662001200661201AA8E318F321206771203DE51
:050672001204E180BB51
:04080100D2A07F05FD
:0808050000AE071FEE70F9229E
:0F07CB00D2A1120801C2A17F05120805C2A02207
:0C080D00C2A1120801D2A17F050208055B
:07074F00120046AD07D209BC
:10075600C2A0A20992A17F05120805120801C2A033
:07076600D2A17F0502080586
:0807A1001207CB7FA01206D95C
:1007A900120801A2A19209C2A07F05120805A20997
:0107B900221D
:0206D900AD076B
:1006DB00E4FCC2A07F05120805ED30E704D2A1802F
:1006EB0002C2A17F05120805D2A0ED25E0FD7F0512
:0906FB001208050CBC08DBC2A0CA
:0107040022D2
:10004600E4FC120801ED25E0FD30A103430501C2E1
:0C005600A07F051208050CBC08E8AF05EF
:01006200227B
:10078700AB05AA071207A1AF021206D91207A9AF34
:0A079700031206D91207A902080D8B
:02072E00AB0717
:100730001207A1AF031206D91207A91207CB7FA196
:0E0740001206D91207A912074F12080DAF05B5
:01074E002288
:02070500AB0740
:100707001207CB7F901206D91207A9AF031206D999
:100717001207A91207CB7F911206D91207A9120750
:060727004F12080DAF05A2
:01072D0022A9
:10006600EC4D6011E8497017ED33EC3304600DE494
:10007600FCFFFEFD22E933E8330470F80202161293
:1000860001E158046009E4CC248150062850090295
:10009600022028400302021DC0E0EB4A7044B980EA
:1000A60006D0E0FB02020CEF4E701CBD8008EBFF91
:1000B600EAFEE9FD80EBE98DF0A4FEE5F002014FD2
:1000C600E9CDF9EAFEEBFFEF89F0A4FCE5F0CE8975
:1000D600F0A42EFFE435F0CD89F0A42DFEE435F032
:1000E6008067EF4E7005BD80D780C3EF8BF0A4AC60
:1000F600F0EE8BF0A42CFCE435F0F8EF8AF0A42C9B
:10010600E5F038FCE433CB8DF0A42CFCE5F03BF8AD
:10011600EE8AF0A42CFCE5F038F8E433CF89F0A49D
:100126002CFCE5F038CF3400CE89F0A42FFFE5F0A3
:100136003EFEE433C98DF0A42EFEE5F039CD8AF0FB
:10014600A42FFFE5F03EFEE43DFD33D0E0FB500773
:100156000BBB000F020220EC2CFCEF33FFEE33FE4C
:06016600ED33FD0201F87B
:10016C0075F020800E75F010800575F0087D007E0E
:10017C00007F003392D530D50312022BEC334010A4
:10018C00EF33FFEE33FEED33FDEC33FCD5F0ED2217
:0E019C00E5F0247EA2D513CC92E7CDCEFF2253
:1001AA00EDD2E7CD33EC3392D524814006E4FFFE4D
:1001BA00FDFC22FCE4CFCECDCC24E0501174FF80AC
:1001CA00EDC3CC13CCCD13CDCE13CECF13CF047049
:0701DA00F030D5DE02022B1C
:1001E100E9D2E7C933E833F892D5EDD2E7CD33EC64
:0701F10033FC5002B2D522DD
:1001F800EC30E7100FBF000C0EBE00080DBD000468
:100208000BEB6014A2D5EB13FCED92E7FD2274FF13
:10021800FCFDFEFF22E480F8A2D574FF13FC7D806C
:03022800E480EF80
:0300000002057680
:0C057600787FE4F6D8FD75813C0205BDDD
:0E022B00C3E49FFFE49EFEE49DFDE49CFC22E4
:10058200020602E493A3F8E493A34003F68001F287
:1005920008DFF48029E493A3F85407240CC8C3337A
:1005A200C4540F4420C8834004F456800146F6DF49
:1005B200E4800B0102040810204080900003E47ED6
:1005C200019360BCA3FF543F30E509541FFEE4933E
:1005D200A360010ECF54C025E060A840B8E493A305
:1005E200FAE493A3F8E493A3C8C582C8CAC583CA30
:1005F200F0A3C8C582C8CAC583CADFE9DEE780BEE8
:0100450000BA
:00000001FF
