:0C0F4900C0F9A4B0999282F88090BFFF1C
:10000300092100010203040506070801400001411C
:100013000002340000022C0000C101C1800237033A
:10002300E8023207D0023E0000023C0000022A0030
:1000330000C102023A00000136000139000131001B
:06004300012E0001300057
:080F6D007F3B7E5ADEFEDFFC33
:010F75002259
:0E0F2E008D8053A01FEF42A08D8053A01F2284
:100EC9007DFF7F80120F2EE4FD7FA0120F2E7DFF84
:0A0ED9007FC0120F2E7FE0020F2EE3
:10077300E52F704875220A75230175240A75250B28
:10078300AE3AAF3B7C037DE81206428F26AE3AAF0A
:100793003B7C007D641206427C007D0A1206428D7A
:1007A30027AE3AAF3B7C007D0A1206427C007D0AED
:1007B3001206428D28AE3AAF3B02092CE52F6401A5
:1007C300702CE50AC4540FF522E50A540FF523757E
:1007D300240AE509C4540FF525E509540FF52675D8
:1007E300270AE508C4540FF528E508020A38E52F5F
:1007F30064036009E52F6404600302087EAE3CAF26
:100803003D7C037DE81206428F22AE3CAF3D7C0067
:100813007D641206427C007D0A1206428D23AE3CA3
:10082300AF3D7C007D0A1206427C007D0A1206421F
:100833008D24AE3CAF3D7C007D0A1206428D25AE71
:100843003EAF3F7C037DE81206428F26AE3EAF3FAC
:100853007C007D641206427C007D0A1206428D27CD
:10086300AE3EAF3F7C007D0A1206427C007D0A1239
:1008730006428D28AE3EAF3F02092CE52F6405608A
:100883000CE52F64066006E52F6407703AE53675BC
:10089300F00A84F522E53675F00A8485F023752481
:1008A3000AE53975F00A84F525E53975F00A84857A
:1008B300F02675270AE53175F00A84F528E53175C8
:1008C300F00A8485F02922E52F64086003020A05F3
:1008D30030006075220A75230275240AAE34AF35E1
:1008E3007C277D101206428F25AE34AF357C037D05
:1008F300E81206427C007D0A1206428D26AE34AF12
:10090300357C007D641206427C007D0A1206428D0E
:1009130027AE34AF357C007D0A1206427C007D0A87
:100923001206428D28AE34AF357C007D0A12064292
:100933008D292275220A75230275240AAE34AF3538
:10094300AB07AA06E4F9F87F407E427D0FFC120D47
:100953001DE47B107A27F9F8120D1D8F25AE34AFF5
:1009630035AB07AA06E4F9F87F407E427D0FFC12FF
:100973000D1DE47BE87A03F9F8120D1DE47B0AFAF6
:10098300F9F8120D1DAF038F26AE34AF35AB07AAAE
:1009930006E4F9F87F407E427D0FFC120D1DE47BD7
:1009A30064FAF9F8120D1DE47B0AFAF9F8120D1D29
:1009B300AF038F27AE34AF35AB07AA06E4F9F87F50
:1009C300407E427D0FFC120D1DE47B0AFAF9F812FA
:1009D3000D1DE47B0AFAF9F8120D1DAF038F28AE43
:1009E30034AF35AB07AA06E4F9F87F407E427D0FAA
:1009F300FC120D1DE47B0AFAF9F8120D1DAF038FEB
:100A03002922E52F6409704AE530602EE536C45487
:100A13000FF522E536540FF52375240AE539C4543E
:100A23000FF525E539540FF52675270AE531C4542A
:100A33000FF528E531540FF5292275220B75230B89
:100A430075240B75250B75260B75270BE4F5288587
:030A53002E292227
:1000660043B00FC2C4C2C2E5C05404C454F0FFE595
:10007600B0543F4FFFE5C0541033333354F84FFFAD
:1000860053B0F0D2C4D2C2E5C05404C454F0FEE565
:10009600B0543F4EFEE5C05410FD33333354F84E92
:1000A6004207430730EFF4605CE5407058120F6D6D
:1000B60043B00FC2C4C2C2E5C05404C454F0FFE545
:1000C600B0543F4FFFE5C0541033333354F84FFF5D
:1000D60053B0F0D2C4D2C2E5C05404C454F0FEE515
:1000E600B0543F4EFEE5C0541033333354F84E42FD
:1000F60007430730EFF4700302047CE54060030217
:10010600047C8F4022EFF4600302047CE540700318
:1001160002047C120F6D43B00FC2C4C2C2E5C054C4
:1001260004C454F0FFE5B0543F4FFFE5C05410330C
:10013600333354F84FFF53B0F0D2C4D2C2E5C054A3
:1001460004C454F0FEE5B0543F4EFEE5C05410FD25
:1001560033333354F84E4207430730EFF46003025B
:10016600047CE540700302047C248970030202A724
:1001760024FC700302027B24FE700302020B24C2DD
:10018600700302044024FE70030203CF14700302BE
:10019600035524406003020479E52F606264086019
:1001A6005EE52FB409028057E52F6405600FE52F41
:1001B60064066009E52F64076003020479E531757A
:1001C600F00A84C454F0FFE53175F00A84E5F04F77
:1001D600F508E53975F00A84C454F0FFE53975F081
:1001E6000A84E5F04FF509E53675F00A84C454F043
:1001F600FFE53675F00A84E5F04FF50A120DEA754B
:100206002F01020479E52F6401600BE52F64086075
:1002160005E52FB40906E4F52F020479E52F6403FA
:100226006009E52F64046003020479E4F52FC3E551
:100236003F953DE53E953C4003020479AE3EAF3F17
:100246007C007D64120642AD077F10120E30120F3D
:100256006DAE3CAF3D7C007D64120642AD077F115A
:10026600120E30120F6D853E37853F38853C32853C
:100276003D33020479E52F6401600BE52F600764C6
:10028600096003020479752F08300103020479D24C
:1002960001C28CE4F58CF58AF52CF52DD28C02047E
:1002A60079E52F7012752F0385373E85383F8532E5
:1002B6003C85333D020479E52FB40306752F04020D
:1002C6000479E52FB40406752F03020479E52F643B
:1002D600017039752F05E508C4540F75F00AA4FF9F
:1002E600E508540F2FF531E509C4540F75F00AA43B
:1002F600FFE509540F2FF539E50AC4540F75F00AC6
:10030600A4FFE50A540F2FF536020479E52FB4054C
:1003160006752F06020479E52FB40606752F070227
:100326000479E52FB40706752F05020479E52FB485
:100336000805B200020479E52F6409600302047916
:10034600E53070047F0180027F008F30020479E57A
:100356002FB40318C3E53D9488E53C94134003028B
:10036600047974F4253DF53D74018078E52FB404D5
:1003760018C3E53F9488E53E94134003020479745C
:10038600F4253FF53F7401807AE52FB4050FE53675
:10039600C3941840030204790536020479E52FB4A4
:1003A600060FE539C394184003020479053902049F
:1003B60079E52F64076003020479E531C394184098
:1003C600030204790531020479E52FB4031DD3E550
:1003D6003D9400E53C94005003020479740C253DDD
:1003E600F53D74FE353CF53C020479E52FB404195D
:1003F600D3E53F9400E53E94004078740C253FF524
:100406003F74FE353EF53E806AE52FB4050BE536B2
:10041600D39400405E1536805AE52FB4060BE539B5
:10042600D39400404E1539804AE52F64077044E5A1
:1004360031D39400403D15318039E52F64016008C1
:10044600E52F60046408702B752F09E4FF120DC1B7
:100456008F2E120F6D7F01120DC18F31120F6D7F1E
:1004660002120DC18F39120F6D7F03120DC18F3627
:06047600120F6DE4F540D9
:01047C00225D
:0D0F3C00438E0475D72075D6D1438E102248
:03006300020B7D10
:100B7D00C0E0C083C082C0D075D000C000C005C029
:010B8D000760
:100B8E00D203AF417401A807088002C333D8FCFD1D
:100B9E007FC0120F2E052BE52B7002052AC394E899
:100BAE00E52A94034008752A00752B00B202300224
:100BBE0079E52FB40315E541605F6401605BE541A3
:100BCE0064026055E541B40302804EE52FB404196A
:100BDE00E54164046011E5416405600BE54164067E
:100BEE006005E541B407028030E52FB40509E54103
:100BFE006003B401028022E52FB4060DE5416403C3
:100C0E006005E541B404028010E52FB40711E541FB
:100C1E0064066005E541B40706900F54E480147431
:100C2E00222541F8E6900F49800974222541F8E605
:100C3E00900F4993FD7FE0120F2E0541E541C394BD
:100C4E0008400375410030012B052DE52D7002057E
:100C5E002CC394E8E52C9403401AC28C752C0075B5
:100C6E002D00AF8CEFAD8AF534EDF535758C007532
:040C7E008A00D28C8A
:0F0C8200D007D005D000D0D0D082D083D0E032C0
:100EF900438E805389F0438904E4F58AF58CC28DC9
:030F0900C28C2275
:100A5600120F3C120EC943AF04D2AF120DEA120EAA
:100A6600F97F99120EE3E4FF120DC18F2E120F6D5E
:100A76007F01120DC18F31120F6D7F02120DC18FD2
:100A860039120F6D7F03120DC1EF75F064A4F536B0
:100A9600120F6D7F10120DC1EF75F064A485F0374B
:100AA600F538120F6D7F11120DC17532008F33129A
:100AB6000F6DAE32AF337C017DF4120642ED4C6011
:100AC600067532077533D0AE37AF387C017DF41228
:100AD6000642ED4C60067537037538E8E52F703E23
:100AE6007F03120E52EFFD7C00E41205887BCD7A5F
:100AF600CC799C784112047D1205C18E3A8F3B7FDA
:100B060003120E52EFFD7C00E41205887BCD7ACCF1
:100B1600799C784112047D1205C18E3A8F3B120EE4
:100B26000DD3E53B9533E53A9532500BC3E53B953E
:100B360038E53A95375037D3E53B9533E53A953264
:100B460040057D01E48002E4FDFF120E30120F6DB8
:100B5600AD087F01120E30120F6DAD097F02120E25
:100B660030120F6DAD0A7F03120E30120F6D120791
:070B760073120066020AE29F
:050049000308555923D6
:100F0C00E4FEC297EF1392A3EFC313FFD2970EBE6A
:020F1C0008F0DB
:010F1E0022B0
:10004F00C29300C29700D29300120F0CAF05120F8C
:04005F000CC293221A
:100D6100E4FDC29300C29700D29300120F0CE4FF7E
:100D7100C297EDC313FD30A303430580D2970FBF84
:100D810008EEC29300C29700D29700C2A300D2A37B
:030D910000AF05AB
:010D9400223C
:100DEA00E4FD7F8E12004FAD087F8012004FAD09DF
:100DFA007F8212004FAD0A7F8412004F7D807F8E62
:030E0A0002004F94
:100E0D00E4FD7F8E12004F7F81120D618F087F836D
:100E1D00120D618F097F85120D618F0A7D807F8E86
:030E2D0002004F71
:040F5500D2A07F3275
:080F590000AE071FEE70F92243
:0F0F1F00D2A1120F55C2A17F32120F59C2A022C8
:0C0F6100C2A1120F55D2A17F32020F591D
:070E7300120E91AD07D2043D
:100E7A00C2A0A20492A17F32120F59120F55C2A02A
:070E8A00D2A17F32020F59D3
:0A0EAE00AB07120F1F7F90120D9585
:100EB800120F55A2A19204C2A07F32120F59A204A8
:010EC8002207
:020D9500AD07A8
:100D9700E4FCC2A07F32120F59ED30E704D2A180E4
:100DA70002C2A17F32120F59D2A0ED25E0FD7F329A
:090DB700120F590CBC08DBC2A0AC
:010DC0002210
:100E9100E4FC120F55ED25E0FD30A103430501C22D
:0C0EA100A07F32120F590CBC08E8AF050E
:010EAD002222
:100E3000AB05AA07120F1F7FA0120D95120EB8AFB7
:100E400002120D95120EB8AF03120D95120EB802D4
:020E50000F6130
:020DC100AB077E
:100DC300120F1F7FA0120D95120EB8AF03120D95CF
:100DD300120EB8120F1F7FA1120D95120EB8120E2C
:060DE30073120F61AF0561
:010DE90022E7
:100EE300120EAE7F40120D95120EB8AF03120D9580
:060EF300120EB8020F61AF
:100E5200120EAEEB4440FF120D95120EB8120F1F88
:100E62007F91120D95120EB8120E73120F61AF051B
:010E7200225D
:10047D00EC4D6011E8497017ED33EC3304600DE479
:10048D00FCFFFEFD22E933E8330470F802062D125D
:10049D0005F858046009E4CC24815006285009025F
:1004AD000637284003020634C0E0EB4A7044B98099
:1004BD0006D0E0FB020623EF4E701CBD8008EBFF5B
:1004CD00EAFEE9FD80EBE98DF0A4FEE5F00205669C
:1004DD00E9CDF9EAFEEBFFEF89F0A4FCE5F0CE895A
:1004ED00F0A42EFFE435F0CD89F0A42DFEE435F017
:1004FD008067EF4E7005BD80D780C3EF8BF0A4AC45
:10050D00F0EE8BF0A42CFCE435F0F8EF8AF0A42C7F
:10051D00E5F038FCE433CB8DF0A42CFCE5F03BF892
:10052D00EE8AF0A42CFCE5F038F8E433CF89F0A482
:10053D002CFCE5F038CF3400CE89F0A42FFFE5F088
:10054D003EFEE433C98DF0A42EFEE5F039CD8AF0E0
:10055D00A42FFFE5F03EFEE43DFD33D0E0FB500758
:10056D000BBB000F020637EC2CFCEF33FFEE33FE16
:06057D00ED33FD02060F44
:1005830075F020800E75F010800575F0087D007EF3
:10059300007F003392D530D503120697EC33401019
:1005A300EF33FFEE33FEED33FDEC33FCD5F0ED22FC
:0E05B300E5F0247EA2D513CC92E7CDCEFF2238
:1005C100EDD2E7CD33EC3392D524814006E4FFFE32
:1005D100FDFC22FCE4CFCECDCC24E0501174FF8091
:1005E100EDC3CC13CCCD13CDCE13CECF13CF04702E
:0705F100F030D5DE02069791
:1005F800E9D2E7C933E833F892D5EDD2E7CD33EC49
:0706080033FC5002B2D522C1
:10060F00EC30E7100FBF000C0EBE00080DBD00044C
:10061F000BEB6014A2D5EB13FCED92E7FD2274FFF8
:10062F00FCFDFEFF22E480F8A2D574FF13FC7D8051
:03063F00E480EF65
:03000000020C915E
:0C0C9100787FE4F6D8FD758141020CD894
:10064200BC000BBE0029EF8DF084FFADF022E4CC9C
:10065200F875F008EF2FFFEE33FEEC33FCEE9DEC65
:10066200984005FCEE9DFE0FD5F0E9E4CEFD22EDAB
:10067200F8F5F0EE8420D21CFEADF075F008EF2FF5
:10068200FFED33FD4007985006D5F0F222C398FDE6
:050692000FD5F0EA2283
:100D1D00C2D5E830E70FB2D5E4C39BFBE49AFAE401
:100D2D0099F9E498F8EC30E717B2D5120D53120685
:100D3D00E1E4C39BFBE49AFAE499F9E498F88003A3
:100D4D001206E130D50DE4C39FFFE49EFEE49DFD48
:040D5D00E49CFC22F4
:0E069700C3E49FFFE49EFEE49DFDE49CFC2274
:100C9D00020A56E493A3F8E493A34003F68001F20D
:100CAD0008DFF48029E493A3F85407240CC8C33358
:100CBD00C4540F4420C8834004F456800146F6DF27
:100CCD00E4800B0102040810204080900003E47EB4
:100CDD00019360BCA3FF543F30E509541FFEE4931C
:100CED00A360010ECF54C025E060A840B8E493A3E3
:100CFD00FAE493A3F8E493A3C8C582C8CAC583CA0E
:100D0D00F0A3C8C582C8CAC583CADFE9DEE780BEC5
:01004E0000B1
:1006A50075F008758200EF2FFFEE33FECD33CDCC0C
:1006B50033CCC58233C5829BED9AEC99E58298408F
:1006C5000CF582EE9BFEED9AFDEC99FC0FD5F0D66C
:1006D500E4CEFBE4CDFAE4CCF9A88222B800C1B996
:1006E5000059BA002DEC8BF084CFCECDFCE5F0CBD4
:1006F500F97818EF2FFFEE33FEED33FDEC33FCEB0D
:1007050033FB10D703994004EB99FB0FD8E5E4F9C7
:10071500FA227818EF2FFFEE33FEED33FDEC33FCB4
:10072500C933C910D7059BE99A4007EC9BFCE99AA8
:10073500F90FD8E0E4C9FAE4CCFB2275F010EF2FED
:10074500FFEE33FEED33FDCC33CCC833C810D707ED
:100755009BEC9AE899400AED9BFDEC9AFCE899F828
:0E0765000FD5F0DAE4CDFBE4CCFAE4C8F922BB
:00000001FF
