:0C062500C0F9A4B0999282F88090BFFF49
:10051B00090B000102030405060708021B00000279
:10052B00180000011400011A02011600011500C188
:0A053B0000010800010900010A0197
:1005B600D3EF9400EE940040147D4D7C03ED1D7046
:0D05C600011CED4C70F7EF1F70E61E80E386
:0105D3002205
:0E0617008D8053A01FEF42A08D8053A01F22A4
:1005D4007DFF7F80120617E4FD7FA01206177DFFC2
:0C05E4007FC0120617E4FD7FE00206173E
:10033200E5B0540FFFE508701DEF640F60187F05EC
:100342007E001205B6E5B0540FFFE5087077EF6442
:100352000F60728F0822E508606BEF640F70667F92
:1003620005FE1205B6E5B0540FFFE5086054EF64D0
:100372000F704FE50824F9603F24FC601424FE60EE
:100382000714703EB200803AE4F51BF51CF51A80A2
:1003920031E515700A751501F51B751C3C8023E5C6
:1003A20015B4010B751502751B00751C788013E4DA
:1003B200F515F51BF51C800A0516E516B40303E4D2
:0503C200F516E4F5084A
:0103C7002213
:10060600438E805389F0758AAE758CFBC28DD28C71
:0106160022C1
:03000B00020248A6
:10024800C0E0C083C082C0D075D000C000C005C067
:01025800079E
:100259000509E509C39414405175090030001CE5EE
:100269000AB4081714FF7401A807088002C333D819
:10027900FCFD7FC01206177DC68020E50A14FF74B5
:1002890001A807088002C333D8FCFD7FC0120617F6
:10029900740B250AF8E690062593FD7FE0120617F0
:1002A900050AE50AB40903750A010514E514B40A37
:1002B90005751400800DE514D3951A4004C2B48065
:1002C90002D2B40519E51970020518C39410E5188E
:1002D90094274014751800751900E51C451B600822
:1002E900E51C151C7002151BE51C451B7006F51A4B
:1002F9007DFF8021E5167007751A027DFE8016E5DF
:1003090016B40107751A037DFD800AE516B4020AC1
:0A031900751A077DFB7F801206179E
:0F032300D007D005D000D0D0D082D083D0E03228
:1003C8001206061205D4D2A9D2AF30002A1204E1CF
:1003D8001201528F17750C0A750D04750E0A750FE8
:1003E8000B75100BE51775F00A84F511E51775F014
:1003F8000A8485F0128050750C0AE51604F50D750F
:100408000E0A750F0BAE1BAF1C7C037DE81201E5CD
:100418008F10AE1BAF1C7C007D641201E57C007D53
:100428000A1201E58D11AE1BAF1C7C007D0A12017A
:10043800E57C007D0A1201E58D12AE1BAF1C7C0025
:0D0448007D0A1201E58D131203320203D26A
:1004E10012056D7FCC1205467F4412054612056D3B
:1004F1007FCC1205467FBE1205461205948F1D1250
:100501000594EFFEE51DFFE4AD07AC06120119E409
:09051100FBFA7980783D12000E1E
:01051A0022BE
:020546008F1E06
:10054800E4F51FC294E51E1392941205F0D294E5C7
:100558001EC313F51E051FE51FC3940840E57F055C
:050568007E000205F415
:10059400E4F51EC294E51FC313F51FD294309403EF
:1005A400431F801205F0051EE51EC3940840E4AF06
:0105B4001F27
:0105B5002223
:10056D00C201D2947F0C7E001205F4C2947F507E9E
:10057D00001205F4D2947F0A7E001205F4A2949223
:06058D00011205F0A201BD
:010593002245
:0405F0007F057E0005
:1005F4007C007D0A1201D3EF1FAC0670011E4C7003
:02060400F622DC
:10000E00EC4D6011E8497017ED33EC3304600DE4EC
:10001E00FCFFFEFD22E933E8330470F80201BE1244
:10002E00018958046009E4CC248150062850090245
:10003E0001C82840030201C5C0E0EB4A7044B980F4
:10004E0006D0E0FB0201B4EF4E701CBD8008EBFF42
:10005E00EAFEE9FD80EBE98DF0A4FEE5F00200F783
:10006E00E9CDF9EAFEEBFFEF89F0A4FCE5F0CE89CD
:10007E00F0A42EFFE435F0CD89F0A42DFEE435F08A
:10008E008067EF4E7005BD80D780C3EF8BF0A4ACB8
:10009E00F0EE8BF0A42CFCE435F0F8EF8AF0A42CF3
:1000AE00E5F038FCE433CB8DF0A42CFCE5F03BF806
:1000BE00EE8AF0A42CFCE5F038F8E433CF89F0A4F6
:1000CE002CFCE5F038CF3400CE89F0A42FFFE5F0FC
:1000DE003EFEE433C98DF0A42EFEE5F039CD8AF054
:1000EE00A42FFFE5F03EFEE43DFD33D0E0FB5007CC
:1000FE000BBB000F0201C8EC2CFCEF33FFEE33FEFE
:06010E00ED33FD0201A02B
:1001140075F020800E75F010800575F0087D007E66
:10012400007F003392D530D50312023AEC334010ED
:10013400EF33FFEE33FEED33FDEC33FCD5F0ED226F
:0E014400E5F0247EA2D513CC92E7CDCEFF22AB
:10015200EDD2E7CD33EC3392D524814006E4FFFEA5
:10016200FDFC22FCE4CFCECDCC24E0501174FF8004
:10017200EDC3CC13CCCD13CDCE13CECF13CF0470A1
:07018200F030D5DE02023A65
:10018900E9D2E7C933E833F892D5EDD2E7CD33ECBC
:0701990033FC5002B2D52235
:1001A000EC30E7100FBF000C0EBE00080DBD0004C0
:1001B0000BEB6014A2D5EB13FCED92E7FD2274FF6C
:1001C000FCFDFEFF22E480F8A2D574FF13FC7D80C5
:0301D000E480EFD9
:03000000020455A2
:0C045500787FE4F6D8FD75812002049C3D
:1001D300EF8DF0A4A8F0CF8CF0A428CE8DF0A42E40
:0201E300FE22FA
:1001E500BC000BBE0029EF8DF084FFADF022E4CCFE
:1001F500F875F008EF2FFFEE33FEEC33FCEE9DECC7
:10020500984005FCEE9DFE0FD5F0E9E4CEFD22ED0C
:10021500F8F5F0EE8420D21CFEADF075F008EF2F56
:10022500FFED33FD4007985006D5F0F222C398FD47
:050235000FD5F0EA22E4
:0E023A00C3E49FFFE49EFEE49DFDE49CFC22D5
:100461000203C8E493A3F8E493A34003F68001F2E6
:1004710008DFF48029E493A3F85407240CC8C3339C
:10048100C4540F4420C8834004F456800146F6DF6B
:10049100E4800B010204081020408090051BE47EDB
:1004A100019360BCA3FF543F30E509541FFEE49360
:1004B100A360010ECF54C025E060A840B8E493A327
:1004C100FAE493A3F8E493A3C8C582C8CAC583CA52
:1004D100F0A3C8C582C8CAC583CADFE9DEE780BE0A
:0105450000B5
:00000001FF
