:1000260053540D0A002425642C25642E25640D0ADC
:1000360000504152410D0A002425642C25640D0A06
:10004600004552524F520D0A00C0F9A4B09992824F
:09005600F88090BFFFC6C7C88CFA
:10138300092600010203040506070801460001457A
:1013930000013300013600C10F022F0000023B00A1
:1013A30000023100000239000002240000C10EC116
:1013B30010C10BC10CC10D01340001230001350024
:1013C30002370BB8023F0023023D0BB80243002350
:0613D300C10AC191C11224
:0E1626008D8053A01FEF42A08D8053A01F2285
:101571007DFF7F80121626E4FD7FA01216267DFFD7
:0A1581007FC01216267FE002162636
:081659007F3B7E5ADEFEDFFC40
:011661002266
:10103A00E534704875270C75280B75290B752A0B32
:10104A00AE39AF3A7C037DE81205BD8F2BAE39AFBE
:10105A003A7C007D641205BD7C007D0A1205BD8DB7
:10106A002CAE39AF3A7C007D0A1205BD7C007D0AA0
:10107A001205BD8D2DAE39AF3A0211E3E534640194
:10108A00702C75270D75280B75290B752A0B752B76
:10109A000B752C0BAE41AF42FC7D0A1205BD7C00DC
:1010AA007D0A1205BD8D2DAE41AF420211E3E53432
:1010BA006402600302118775270E75280B75290BC8
:1010CA00AE31AF327C277D101205BDEF4E60168F10
:1010DA002AAE31AF327C037DE81205BD7C007D0A61
:1010EA001205BD8019AE31AF327C037DE81205BD11
:1010FA007C007D0A1205BDED4C6019752A0B8D2BFB
:10110A00AE31AF327C007D641205BD7C007D0A12CF
:10111A0005BD801CAE31AF327C007D641205BD7CFA
:10112A00007D0A1205BDED4C601C752A0B752B0B50
:10113A008D2CAE31AF327C007D0A1205BD7C007D5C
:10114A000A1205BD801FAE31AF327C007D0A12053E
:10115A00BD7C007D0A1205BDED4C6011752A0B7528
:10116A002B0B752C0B8D2DAE31AF32806C752A0B83
:10117A00752B0B752C0B752D0B85322E22E53464DD
:10118A0003705F75270F75280B75290B200A0575E3
:10119A002A018003752A02752B0B752C0B200A2154
:1011AA00AE3DAF3E7C037DE81205BD7C007D0A1290
:1011BA0005BD8D2DAE3DAF3E7C007D641205BD8020
:1011CA0018AE43AF447C007D0A1205BD7C007D0A3F
:1011DA001205BD8D2DAE43AF447C007D0A1205BDBC
:0311EA008D2E2225
:10131F007F0AC290758AF4758CFFD28CAE071FEED0
:10132F00600C308DFDC28DA290B3929080EEC28C76
:10133F00E4F58AF58CD28C309103308DFAC28C3063
:10134F008D04C28D8027AF8CEFAD8AFCE412017142
:10135F007B967A43798B783C1200661201AA8E41F4
:10136F008F42D3E5429463E54194004006754100F6
:03137F0075426351
:011382002248
:081662008F993099FDC2992215
:101505008B788A79897AAB78AA79A97A1205656088
:1015150013057AE57A7002057914F9120565FF124B
:05152500166280E222C5
:100C6000D2B5D2B4C2B2C2B3E5B0543C44C3FFC2A1
:100C7000B5C2B4D2B2D2B3E5B0543C44C34207EFDC
:100C8000F46039E5457035121659D2B5D2B4C2B206
:100C9000C2B3E5B0543C44C3FFC2B5C2B4D2B2D271
:100CA000B3E5B0543C44C34207EFF47003020E3581
:100CB000E5456003020E358F45020E35EFF4600303
:100CC000020E35E5457003020E35121659D2B5D223
:100CD000B4C2B2C2B3E5B0543C44C3FFC2B5C2B45F
:100CE000D2B2D2B3E5B0543C44C34207EFF4600340
:100CF000020E35E5457003020E3524297003020DFE
:100D00007E24F07003020DF224FC7003020DAB246C
:100D1000106003020E32200B5BE534640360137530
:100D2000340385373D85383E853F43854044C20ABC
:100D30008042E4F534E538B53E11E537B53D0CE5C4
:100D40004065447004E53F65436029853D37853E35
:100D50003885433F8544400532E53270020531E570
:100D600031FDE4FF12158B121659AD327F011215B9
:100D70008B121659E4F52FF530C20B020E32200DFE
:100D800020E534B40304B20A8017E534640360112B
:100D9000E5342401FFE433FE7C007D031205BD8DA4
:100DA00034E4F53BF53CC20D020E32E534B4031ECB
:100DB000200A1BE53E24C8FFE4353DFEC3EF94AC9A
:100DC000EE9426506D74C8253EF53EE4803FE53430
:100DD0006403705E300A5BE5442405FFE43543FE9E
:100DE000C3EF9463EE9400504974052544F544E440
:100DF000803CE534B4031C200A19D3E53E9400E599
:100E00003D9400402D7438253EF53E74FF353DF588
:100E10003D801FE534B4031A300A17D3E54494002B
:100E2000E5439400400C74FB2544F54474FF3543BE
:100E3000F543E4F54530100BE545B4DB06C210D2AE
:100E40000BB211300C23E54564D7701DC20CD20DD6
:100E5000F531F532E531FDE4FF12158B121659AD6F
:090E6000327F0112158B121659A4
:010E69002266
:0D163400438E0475D72075D6D1438E102249
:03006300020E6A20
:100E6A00C0E0C0F0C083C082C0D075D000C000C04E
:0D0E7A0001C002C003C004C005C006C007CF
:100E8700755BFF90005AE493FD7FE0121626AF468C
:100E97007401A807088002C333D8FCFD7FC012166F
:100EA70026E5347011E546B4050C2427F8E69000D2
:100EB7004F93547F800A74272546F8E690004F9396
:100EC700FD7FE01216260546E546C39408400375E4
:100ED7004600200F03020F860536E536C3943250CD
:100EE70003020F86C20F753600AF33053374472FE1
:100EF700F8760075330078477C007D007BFF7A0029
:100F070079261207D4EF7030D212755FFF75600033
:100F170075612B854162854263AE39AF3AFC7D64CA
:100F27001205BD8E648F65AE39AF3A7C007D6412C1
:100F370005BD8C668D67803E78477C007D007BFF12
:100F47007A0079371207D4EF7021D212755FFF75D7
:100F5700600075613E853F62854063AE37AF38FC00
:100F67007D641205BD8E648F65800BD212755FFF9D
:100F77007560007561477B007A00794712084D203C
:100F87001021200B1EE545B4DB190530E530700252
:100F9700052FC394E8E52F94034008D210752F005E
:100FA700753000200C21200D1EE545B4D719053CEE
:100FB700E53C7002053BC394E8E53B94034008D247
:100FC7000C753B00753C000525E52570020524C31B
:100FD7009490E52494014008752400752500D20EED
:100FE7000523E523C394FF4006752300753501D318
:100FF700E53A9538E53995374003535BFEC3E5423B
:101007009540E541953F5003535BFD301103535B1A
:08101700FBAD5B7F8012162681
:10101F00D007D006D005D004D003D002D001D00025
:0B102F00D0D0D082D083D0F0D0E032CF
:10160600538E7F5389F0758AF4758CFFC28DC28C18
:0116160022B1
:1015D800759850438E40538EFE53890F758B8F75C7
:0715E8008DFDC2ABD28E2283
:0300230002152A99
:10152A00C0E0C0D075D000C000C00730980EC29885
:10153A00D20FAF33053374472FF8A699D007D000DE
:05154A00D0D0D0E0321A
:1011ED001215711216341216061215D8D2AC43AF61
:1011FD0004D2AF7F1F121468EF647B600EE4F531EB
:10120D00F5327D7B7F1F12158B8021E4FF12146850
:10121D007531008F321216597F01121468EFFD7C63
:10122D0000E532FEE42DF532EC3EF5311216593063
:10123D000E16C20E1213DAE4FBFA79C878421200C8
:10124D00661201AA8E398F3A120C60E5356006E4FC
:10125D00F53512131F30120BC2127B007A0079473D
:10126D00121505D3E5429540E541953F5009A21170
:10127D00E433FD7F668007A211E433FD7FCC1214A9
:06128D003F12103A80A997
:04164100D2A07F3282
:0816450000AE071FEE70F92250
:0F161700D2A1121641C2A17F32121645C2A022E3
:0C164D00C2A1121641D2A17F3202164544
:1015EF00C2A0A20992A17F32121645121641C2A0C3
:0715FF00D2A17F3202164564
:0815BF001216177FA01214138D
:1015C700121641A2A19209C2A07F32121645A209A2
:0115D70022F1
:02141300AD0723
:10141500E4FCC2A07F32121645ED30E704D2A1806C
:1014250002C2A17F32121645D2A0ED25E0FD7F3222
:091435001216450CBC08DBC2A034
:01143E00228B
:10000300E4FC121641ED25E0FD30A103430501C2D6
:0C001300A07F321216450CBC08E8AF05B7
:01001F0022BE
:10158B00AB05AA071215BFAF021214131215C7AF82
:0A159B00031214131215C702164DB7
:10143F00AB05AA071216177F901214131215C77F48
:10144F00401214131215C7EB6004AF0280027F1510
:09145F001214131215C702164DF8
:02146800AB07D0
:10146A001215BFAF031214131215C71216177FA154
:10147A001214131215C7120003AD07D2091215EF81
:05148A0012164DAF0534
:01148F00223A
:1013DA001214B77FCC1214907F441214901214B7CF
:1013EA007FCC1214907FBE12149012154F8F781270
:1013FA00154FEFFEE578FFFDAC06E4120171E4FB40
:08140A00FA7980783D120066BA
:0114120022B7
:021490008F7952
:10149200E4F57AC294E5791392941215A5D294E5F3
:1014A20079C313F579057AE57AC3940840E57F0597
:0514B2007E000215A9F7
:10154F00E4F579C294E57AC313F57AD29430940313
:10155F00437A801215A50579E579C3940840E4AF65
:01156F007A01
:011570002258
:1014B700C209D2947F0C7E001215A9C2947F507E78
:1014C700001215A9D2947F0A7E001215A9A2949240
:0614D700091215A5A2098F
:0114DD0022EC
:0415A5007F057E0040
:1015A900EF7803C333CE33CED8F9FFEF1FAC067003
:0615B900011E4C70F62239
:10006600EC4D6011E8497017ED33EC3304600DE494
:10007600FCFFFEFD22E933E8330470F80202161293
:1000860001E158046009E4CC248150062850090295
:10009600022028400302021DC0E0EB4A7044B980EA
:1000A60006D0E0FB02020CEF4E701CBD8008EBFF91
:1000B600EAFEE9FD80EBE98DF0A4FEE5F002014FD2
:1000C600E9CDF9EAFEEBFFEF89F0A4FCE5F0CE8975
:1000D600F0A42EFFE435F0CD89F0A42DFEE435F032
:1000E6008067EF4E7005BD80D780C3EF8BF0A4AC60
:1000F600F0EE8BF0A42CFCE435F0F8EF8AF0A42C9B
:10010600E5F038FCE433CB8DF0A42CFCE5F03BF8AD
:10011600EE8AF0A42CFCE5F038F8E433CF89F0A49D
:100126002CFCE5F038CF3400CE89F0A42FFFE5F0A3
:100136003EFEE433C98DF0A42EFEE5F039CD8AF0FB
:10014600A42FFFE5F03EFEE43DFD33D0E0FB500773
:100156000BBB000F020220EC2CFCEF33FFEE33FE4C
:06016600ED33FD0201F87B
:10016C0075F020800E75F010800575F0087D007E0E
:10017C00007F003392D530D503120612EC334010B9
:10018C00EF33FFEE33FEED33FDEC33FCD5F0ED2217
:0E019C00E5F0247EA2D513CC92E7CDCEFF2253
:1001AA00EDD2E7CD33EC3392D524814006E4FFFE4D
:1001BA00FDFC22FCE4CFCECDCC24E0501174FF80AC
:1001CA00EDC3CC13CCCD13CDCE13CECF13CF047049
:0701DA00F030D5DE02061231
:1007F100E573245FF8E6057322785C300702785FC1
:10080100E475F0011206200205652000EB7F2ED26F
:10081100008018EF540F2490D43440D4FF30040BDF
:10082100EF24BFB41A0050032461FFE57460021580
:10083100740577E5777002057630070D785CE4750D
:10084100F001120620EF0205AB0214DE7403D20799
:100851008003E4C207F5738B5C8A5D895EE4F574FD
:10086100F576F577E57460077F2012082C80F57521
:1008710075FFC201C200C202C203C205C206C2089C
:100881001207FAFF700D3007057F0012083DAF77A0
:10089100AE7622B4255FC2D5C2041207FAFF24D076
:1008A100B40A00501A75F00A787430D50508B6FFFD
:1008B1000106C6A426F620D5047002D20380D924ED
:1008C100CFB41A00EF5004C2E5D204020B2AD201C0
:1008D10080C6D20080C0D20280BCD2D580BAD205F7
:1008E10080B47F2012082C2002077401B5740040E7
:1008F100F11207F1FF12082C020865D208D2068016
:10090100951207F1FB1207F1FA1207F1F94A4B7040
:100911000679217A0C7BFF20022EE574602A7E0085
:100921008E8275830012057E60060EEE657570F08D
:10093100C2D5EBC0E0EAC0E0E9C0E0EE120B8AD01C
:10094100E0F9D0E0FAD0E0FB120565FF60AAEBC048
:10095100E0EAC0E0E9C0E012082CD0E02401F9D0BF
:10096100E03400FAD0E0FBE5750460DCD575D98090
:1009710087D20280A2120B6D60F7E5757001041237
:10098100022BA975600DE575600914F575120C143B
:10099100EF60F3EA30E702F404C3995077EAF425F3
:1009A100750430E701E404F575800D120B6D60C12B
:1009B100EA0575257512022BEA7872F630E701E433
:1009C100257504D5750420050114120B8AE4C0E0D5
:1009D100120C147872E6601320E70714F61208145B
:1009E100802204F6D0E014C0E07F00120814E575FF
:1009F100600712080B1575800B30050312080BD028
:100A0100E0020865D0E00480C5120B6D60A0E575B9
:100A11000412022B7872EAF6E575200502600104E2
:050A21002404120B8A01
:100A260074FF04C0E0120C14120814E575200502C8
:100A3600600312080BD0E0B575E87F4512081E78F2
:100A460072E67F2B30E7047F2DF404C0E012082CF9
:100A5600D0E075F00A84C0F0120815D0E01208152F
:100A6600020865791080027908C206C2088008D299
:100A7600D5790A8004790AC2D5E575047002F57540
:100A8600E4FAFDFEFF1207F1FC7B082001131207B2
:100A9600F1FD7B1030000A1207F1FE1207F1FF7B11
:100AA60020EC3382D592D55013C3E43000069FFF65
:100AB600E49EFEE42001039DFDE49CFCE4CBF8C229
:100AC60001EC700CCFCECDCCE824F8F870F380178B
:100AD600C3EF33FFEE33FEED33FDEC33FCEB33FBBC
:100AE600994002FB0FD8E9EB300105F8D0E0C44885
:100AF600B201C0E00AEC4D4E4F78207B0070C2EA8E
:100B0600B5750040BCC0E0120B8CD0F0D0E02001DF
:100B160004C4C0E0C4B201C0F0120815D0F0D5F08C
:100B2600EB0208651206300902530A695808D34CCD
:100B360008CF420A6D4F0A75440A754908E8430A08
:100B46007B5509AC460A0A450976470C415008D739
:100B56002D08DB2E08FE2B08DF2308FC200C2A2A92
:100B6600089748000008F6E575B4FF037575061288
:100B760007F1FC1207F1FD1207F1FE1207F1FF78EB
:100B86006B02025A790AA2D5200314300509B9105E
:100B9600020404B9080104A2D5200602500104206B
:100BA60002689202B574005034C0E07F2030031909
:100BB6007F30A20272067205500F120BE3C202C208
:100BC60006C205C2087F30800F300503E9C0E01277
:100BD600082C300503D0E0F9D0E0B574CC30051709
:100BE6007F30B9100C12082C7F583004077F7880AC
:100BF60003B9080312082C3002057F2D02082C7F4A
:100C0600202008F87F2B2006F322920280CF7F0057
:100C1600B407005005246BF8E6FF22286E756C6C4D
:100C26002900D2011207F13001F8C201787430D5DB
:100C36000108F60208972D504349581207F124037C
:100C4600B405004001E4900C3C9312081D743A125E
:0A0C5600081DD203757404020A6938
:1001E100E9D2E7C933E833F892D5EDD2E7CD33EC64
:0701F10033FC5002B2D522DD
:1001F800EC30E7100FBF000C0EBE00080DBD000468
:100208000BEB6014A2D5EB13FCED92E7FD2274FF13
:10021800FCFDFEFF22E480F8A2D574FF13FC7D806C
:03022800E480EF80
:10022B00F920E72824F950037907E4F42402FB189A
:10023B00DBFDE624FB5014E9600DE4F618E604F64A
:0F024B00B40A08E4F6D9F57401F60A22C2D522E6
:10025A00ED33EC3392D5FA602AB4FF33EDC2E77B73
:10026A00FF60067A02797FE4227A02798820D5042F
:10027A007A027983224E614E002B494E46002D495F
:10028A004E4600E47A08F608DAFC7B00740722E896
:10029A00C0E0ECC0E0EDC0E0EEC0E0EFC0E0EA751F
:1002AA00F010A4CAABF075F04DA42BFBE435F0FCBA
:1002BA00EA2410FAEB34C5FBEC34D9FCEDC2E7FFB3
:1002CA0075F056A4F42411C5F0F434C58FF0A42AAD
:1002DA00E5F03BE43CF620E714120525D0E0FFD018
:1002EA00E0FED0E0FDD0E0FC1204588014F40412C1
:1002FA000525D0E0FFD0E0FED0E0FDD0E0FC120002
:10030A0066D0E0F8E6FAEDD2E7CD33EC332482FB8F
:10031A00E4C3CF33CFCE33CECD33CD33DBF37B073C
:10032A0075F00A846004F6081B0AE5F0F6088FF0F7
:10033A00740AA4FFACF08EF0740AA42CFEACF05040
:10034A00010C8DF0740AA42CFDE435F0F608DBDE0E
:03035A0074072203
:10035D00020216E86480F8E933E83360110460F0B6
:10036D00ED33EC337009E8FCE9FDEAFEEBFF220406
:10037D0060DED3EB9FEA9EE99DE8C2E78CF0C2F701
:10038D0095F0400CE8CCF8E9CDF9EACEFAEBCFFBCD
:10039D001201E185D0F05804700320D5B3E8047044
:1003AD00075002B2D502022092D5EC0460F7E4CCDE
:1003BD00C0E0C398F8603B94186008400DD0E0FB96
:1003CD000201F8E4FBFAC9FC8028E830E406E4C930
:1003DD00FBE4CAFCE830E305E4C9CACBFCE85407EA
:1003ED006010F8C3E913F9EA13FAEB13FBEC13FCF5
:1003FD00D8F130F52FC3E49CFCEF9BFFEE9AFEED98
:10040D0099FDD0E0FBEF4E4D4C701222DB03020242
:10041D001DEC2CFCEF33FFEE33FEED33FDED30E73D
:10042D00EB0201F8EF2BFFEE3AFEED39FDD0E0FBCC
:10043D0050130BBB0003020220ED13FDEE13FEEF74
:08044D0013FFEC13FC0201F89F
:10045500020220EC5D046005E859047003020216EF
:100465001201E1580460F6EC4860F2EC7004FDFE00
:10047500FF22C860DB2481C85009C398600250067A
:1004850002021D9850CAF582E9294B4A7005AB82D4
:1004950002020C75F0007C1A7880C3EF9BEE9AED92
:1004A50099400DC3EF9BFFEE9AFEED99FDE842F0F2
:1004B500DC23ACF0D0E0FFD0E0FED0E0FDAB822045
:1004C500E7101BEB60BAEC2CFCEF33FFEE33FEEDCF
:1004D50033FD0201F8E803F830E705C0F075F000D8
:1004E500EF2FFFEE33FEED33FD40B830E7C280AAB3
:1004F5003F8000004120000042C80000447A00000F
:10050500461C400047C35000497424004B18968090
:100515004CBEBC205A0E1BCA6753C21C749DC5AE87
:10052500FB60065407601C2323120553EB54386007
:100535000912053F12054E120066ECF8EDF9EEFAC8
:10054500EFCB22EB12054E80F1543803241C9004A6
:10055500F5FE93FC0EEE93FD0EEE930ECE93FF2269
:0300000002129356
:0C129300787FE4F6D8FD75817A0212DA4B
:10056500BB010689828A83E0225002E722BBFE0294
:09057500E32289828A83E49322C7
:10057E00BB010CE58229F582E5833AF583E0225032
:10058E0006E92582F8E622BBFE06E92582F8E2227C
:0D059E00E58229F582E5833AF583E4932296
:1005AB00BB010689828A83F0225002F722BBFE012F
:0205BB00F32229
:1005BD00BC000BBE0029EF8DF084FFADF022E4CC22
:1005CD00F875F008EF2FFFEE33FEEC33FCEE9DECEB
:1005DD00984005FCEE9DFE0FD5F0E9E4CEFD22ED31
:1005ED00F8F5F0EE8420D21CFEADF075F008EF2F7B
:1005FD00FFED33FD4007985006D5F0F222C398FD6C
:05060D000FD5F0EA2208
:0E061200C3E49FFFE49EFEE49DFDE49CFC22F9
:10062000FAE6FB0808E6F925F0F618E6CA3AF622DB
:10063000D083D082F8E4937012740193700DA3A359
:1006400093F8740193F5828883E47374029368606D
:06065000EFA3A3A380DF6D
:1014DE00EFB40A07740D1214E9740A309811A89922
:1014EE00B8130CC2983098FDA899C298B811F6306E
:0714FE0099FDC299F5992246
:10065600E3F5F009E208B5F06D606B80F3E3F5F0C1
:1006660009E608B5F060605E80F387F009E608B534
:10067600F054605280F487F009E208B5F04860460D
:1006860080F488828C8387F009E0A3B5F038603661
:1006960080F488828C8387F009E493A3B5F0276001
:1006A6002580F388828C83E3F5F009E0A3B5F01684
:1006B600601480F388828C83E3F5F009E493A3B594
:1006C600F004600280F2020781808580E7808E80D8
:1006D600D2803C8015806C807E809B80B5808B802C
:1006E600A1804F8070803A02078D89828A83ECFA56
:1006F600E493F5F0A3C8C582C8CCC583CCE493A324
:10070600C8C582C8CCC583CCB5F070606E80E1895F
:10071600828A83E493F5F0A3E208B5F05E605C801C
:10072600F289828A83E0F5F0A3E608B5F04D604BC6
:1007360080F389828A83E0F5F0A3E208B5F03C6095
:100746003A80F389828A83E493F5F0A3E608B5F04C
:100756002A602880F2805389828A83ECFAE493F532
:10076600F0A3C8C582C8CCC583CCE0A3C8C582C8DF
:10077600CCC583CCB5F004600280E27FFFB5F00201
:100786000F2240027F012289828A83ECFAE0F5F08B
:10079600A3C8C582C8CCC583CCE0A3C8C582C8CCD3
:1007A600C583CCB5F0D560D380E389828A83ECFA21
:1007B600E0F5F0A3C8C582C8CCC583CCE493A3C832
:1007C600C582C8CCC583CCB5F0B160AF80E288F0F5
:1007D600ED2402B4040050A3F582EB2402B4040015
:0B07E600509923234582239006CF7317
:10129F000211EDE493A3F8E493A34003F68001F267
:1012AF0008DFF48029E493A3F85407240CC8C33350
:1012BF00C4540F4420C8834004F456800146F6DF1F
:1012CF00E4800B0102040810204080901383E47E19
:1012DF00019360BCA3FF543F30E509541FFEE49314
:1012EF00A360010ECF54C025E060A840B8E493A3DB
:1012FF00FAE493A3F8E493A3C8C582C8CAC583CA06
:10130F00F0A3C8C582C8CAC583CADFE9DEE780BEBD
:0113D9000013
:00000001FF
