:100026006F6B2121210D0A00253032783A2532786E
:100036003A2532780D0A0077643A25752C726232B9
:100046003A25752C6775616E673A25750D0A00C0ED
:0B005600F9A4B0999282F88090BFFFDF
:1010C900C110013300013900C10A092500010203D9
:1010D9000405060708015F00015E00013200023CB9
:1010E900000002300000012E01025C000001230013
:1010F900C10C02350000023A00000124000134004D
:0F110900012F00C10F02370000C10DC10EC10B35
:0814A6007F3B7E5ADEFEDFFCF5
:0114AE00221B
:0614B70000007F1BDFFEB8
:0114BD00220C
:100CB800E52E6401706075260B75270B75280AAE42
:100CC8003CAF3D7C277D101205CF7C007D0A1205C4
:100CD800CF8D29AE3CAF3D7C037DE81205CF7C006B
:100CE8007D0A1205CF8D2AAE3CAF3D7C007D641293
:100CF80005CF7C007D0A1205CF8D2BAE3CAF3D7C25
:100D0800007D0A1205CF7C007D0A1205CF8D2CAE1E
:100D18003CAF3D020DEAE52E6402703D75260B7569
:100D2800270B75280B75290B752A0AAE5CAF5DFC7D
:100D38007D641205CF7C007D0A1205CF8D2BAE5C39
:100D4800AF5D7C007D0A1205CF7C007D0A1205CFBD
:100D58008D2CAE5CAF5D020DEAE52E64037031E5C3
:100D680008C4540FF526E50875F00A8485F0277540
:100D7800280AE509C4540FF529E509540FF52A7521
:100D88002B0AE50AC4540FF52CE50A540FF52D2259
:100D9800E52E6404705675260B75270B75280B75A0
:100DA800290BAE3AAF3B7C037DE81205CF7C007D72
:100DB8000A1205CF8D2AAE3AAF3B7C007D6412053E
:100DC800CF7C007D0A1205CF8D2BAE3AAF3B7C005D
:100DD8007D0A1205CF7C007D0A1205CF8D2CAE3A14
:100DE800AF3B7C007D0A1205CF8D2D22E52E6405D0
:100DF800705375260B75270B75280B75290B752AEB
:100E08000A300B1EE52F75F0648475F00A8485F0AE
:100E18002BE52F75F00A8475F00A8485F02CE52FF0
:100E2800801CE53475F0648475F00A8485F02BE540
:100E38003475F00A8475F00A8485F02CE53475F071
:060E48000A8485F02D2252
:0E1473008D8053A01FEF42A08D8053A01F223A
:1013B3007DFF7F80121473E4FD7FA01214737DFF01
:0A13C3007FC01214737FE002147360
:0814AF008F993099FDC29922CA
:061207007B007A00793E35
:10120D008B608A618962AB60AA61A9621205656013
:10121D00130562E5627002056114F9120565FF128E
:05122D0014AF80E22275
:100AD700D2C4D2C2D2B5C2B3C2B2E5C05404C45460
:100AE700F0FFE5B0543F4FFFE5C0541033333354A4
:100AF700F84FFFC2C4C2C2C2B5D2B3D2B2E5C05426
:100B070004C454F0FEE5B0543F4EFEE5C05410FD5A
:100B170033333354F84E4207430713EFF46074E559
:100B27005E70701214A6D2C4D2C2D2B5C2B3C2B21A
:100B3700E5C05404C454F0FFE5B0543F4FFFE5C08F
:100B4700541033333354F84FFFC2C4C2C2C2B5D2B4
:100B5700B3D2B2E5C05404C454F0FEE5B0543F4EDE
:100B6700FEE5C05410FD33333354F84E42074307B4
:100B770013EFF47003020C62E55E6003020C628FF0
:100B87005EE55E64D76003020C62D20FF537F53875
:100B9700020C62EFF46003020C62E55E7003020C64
:100BA700621214A6D2C4D2C2D2B5C2B3C2B2E5C0D1
:100BB7005404C454F0FFE5B0543F4FFFE5C0541050
:100BC70033333354F84FFFC2C4C2C2C2B5D2B3D213
:100BD700B2E5C05404C454F0FEE5B0543F4EFEE500
:100BE700C05410FD33333354F84E4207430713EF15
:100BF700F47068E55E60642489601C24C060242466
:100C0700FC601B24E4602824FC601D246070497587
:100C17002E014389048041752E02D20C803A752E2D
:100C2700038035752E048030752E05B20B80293070
:100C37000E04C20E8019300B16E52EB40511AF2F26
:100C47001214141214A67BFF7A00792612120DC211
:100C57000DC20FE4F537F538E4F55E300D527563D4
:100C6700FF75640075652E756600850867756800F1
:100C7700850969756A00850A6B7B007A00793E12DF
:100C870006C41212077563FF75640075653D853AE2
:100C970066853B67756800852F69756A0085346BC3
:100CA7007B007A00793E1206C4121207C20DD20EDB
:010CB700221A
:0D148100438E0475D75075D6FB438E1022A4
:10143E00538E7F5389F0438904E4F58AF58CC28D6F
:03144E00C28C222B
:03006300020E4E3C
:100E4E00C0E0C083C082C0D075D000C000C004C056
:050E5E0005C006C007FD
:100E6300C2000532E532640A6003020F9CF532903A
:100E7300006093FD7FE0121473AF5F7401A807084D
:100E83008002C333D8FCFD7FC01214730536E536E8
:100E930070020535D394FAE53594005004D20080EE
:100EA30013C3E53694F4E5359401400875350075B0
:100EB3003600C200E55F64026005E55FB4050E20FD
:100EC300000BE52EB40306900060E4801FE52EB40A
:100ED3000411E55FB4050C2426F8E69000559354FD
:100EE3007F800A7426255FF8E690005593FD7FE026
:100EF300121473055FE55FC394084003755F00E553
:100F03002E640170310531E53170020530C394E878
:100F1300E53094034020C28C753000753100AF8CEE
:100F2300EFFEAD8A7C00E42DF53DEC3EF53C758C7F
:100F330000758A00D28CE52EB4020E0523E523C387
:100F430094FA4005752300D20C300A310539E5398E
:100F5300C394504028753900C20AAF330533743E39
:100F63002FF8760DAF330533743E2FF8760AAF337F
:100F73000533743E2FF87600753300D210300F1905
:100F83000538E53870020537C394F4E5379401401A
:090F930008753700753800D20D15
:100F9C00D007D006D005D004D000D0D0D082D083DA
:030FAC00D0E03260
:1013E700759850438E40538EFE53890F758B3C750D
:0713F7008DF6C2ABD28E227D
:0300230002123294
:10123200C0E0C0D075D000C000C007309814C2987A
:10124200E5337004D20AF539AF330533743E2FF813
:0B125200A699D007D000D0D0D0E03229
:10111E007E145389F0C28CAF061EEF600CC2901283
:10112E0014B7D2901214B780EEE4F58CF58AD28CF7
:10113E00309103308DFAC28C308D09C28D755C03EF
:10114E00755DE722AF8CEFAD8AFCE41201717B96E0
:10115E007A43798B783C1200661201AA8E5C8F5D01
:01116E00225E
:100FAF00E4FF1213B312148112143E43AF04121351
:100FBF00E7D2ACD2AF1212D47DEAE4FF12131A12A9
:100FCF0014A6E4FF12125DEF75F06484F526EF7539
:100FDF00F00A8475F00A8485F027EF75F00A84858E
:100FEF00F02875290A120AD7300C0AE52EB402052B
:100FFF00C20C12111EE52EB403031212F7E52EB424
:10100F00040712116F8E3A8F3BE52EB40513300B88
:10101F00097F0312133C8F2F80077F0112133C8F20
:0E102F0034301005C210121207120CB880B730
:05111800030808595016
:10145100E4FEC297EF1392A3EFC313FFD2970EBE20
:0214610008F091
:011463002266
:10142A00C29300C29700D29300121451AF0512144E
:04143A0051C29322E6
:1011A700E4FDC29300C29700D29300121451E4FFEA
:1011B700C297EDC313FD30A303430580D2970FBF3A
:1011C70008EEC29300C29700D29700C2A300D2A331
:0311D70000AF0561
:0111DA0022F2
:1012D400E4FD7F8E12142AAD0A7F8012142AAD0910
:1012E4007F8212142AAD087F8412142A7D807F8E97
:0312F40002142AB7
:1012F700E4FD7F8E12142A7F811211A78F0A7F8344
:101307001211A78F097F851211A78F087D807F8E05
:0313170002142A93
:0413FE007F057E00E9
:101402007C007D0A1205BDEF1FAC0670011E4C70F8
:02141200F622C0
:02000300AB0749
:10000500E4FAC294EB1392941213FED294EBC31349
:0C001500FB0ABA08ED7F057E0002140211
:1013CD00E4FAC294EBC313FBD2943094034303802D
:0913DD001213FE0ABA08EBAF037B
:0113E60022E4
:10128600C201D2947F0C7E00121402C2947F507E5B
:1012960000121402D2947F0A7E00121402A29492C3
:0612A600011213FEA2017B
:0112AC00221F
:10116F001212867FCC1200037F44120003121286E4
:10117F007FCC1200037FBE1200031213CDA90712FA
:10118F0013CDEFAD01FCE4120171E4FBFA79C878DD
:07119F00401200661201AAD4
:0111A6002226
:04148E00D2A07F3237
:0814920000AE071FEE70F92205
:0F146400D2A112148EC2A17F32121492C2A02202
:0C149A00C2A112148ED2A17F3202149263
:07135D0012137BAD07D20162
:10136400C2A0A20192A17F3212149212148EC2A0C2
:07137400D2A17F32021492A6
:0A139800AB071214647F901211DB02
:1013A20012148EA2A19201C2A07F32121492A20143
:0113B2002218
:0211DB00AD075E
:1011DD00E4FCC2A07F32121492ED30E704D2A1805C
:1011ED0002C2A17F32121492D2A0ED25E0FD7F3212
:0911FD001214920CBC08DBC2A024
:0112060022C5
:10137B00E4FC12148EED25E0FD30A103430501C200
:0C138B00A07F321214920CBC08E8AF05E1
:011397002233
:02125D00AB07DD
:10125F001214647FA01211DB1213A2AF031211DB61
:10126F001213A21214647FA11211DB1213A2121314
:06127F005D12149AAF0598
:011285002246
:10131A00AB05AA071214647FA01211DB1213A2AF45
:10132A00021211DB1213A2AF031211DB1213A20273
:02133A00149A03
:10133C00121398EB4440FF1211DB1213A212146427
:10134C007F911211DB1213A212135D12149AAF05C6
:01135C00226E
:101414001213987F401211DB1213A2AF031211DBD7
:061424001213A202149A4B
:10006600EC4D6011E8497017ED33EC3304600DE494
:10007600FCFFFEFD22E933E8330470F80202161293
:1000860001E158046009E4CC248150062850090295
:10009600022028400302021DC0E0EB4A7044B980EA
:1000A60006D0E0FB02020CEF4E701CBD8008EBFF91
:1000B600EAFEE9FD80EBE98DF0A4FEE5F002014FD2
:1000C600E9CDF9EAFEEBFFEF89F0A4FCE5F0CE8975
:1000D600F0A42EFFE435F0CD89F0A42DFEE435F032
:1000E6008067EF4E7005BD80D780C3EF8BF0A4AC60
:1000F600F0EE8BF0A42CFCE435F0F8EF8AF0A42C9B
:10010600E5F038FCE433CB8DF0A42CFCE5F03BF8AD
:10011600EE8AF0A42CFCE5F038F8E433CF89F0A49D
:100126002CFCE5F038CF3400CE89F0A42FFFE5F0A3
:100136003EFEE433C98DF0A42EFEE5F039CD8AF0FB
:10014600A42FFFE5F03EFEE43DFD33D0E0FB500773
:100156000BBB000F020220EC2CFCEF33FFEE33FE4C
:06016600ED33FD0201F87B
:10016C0075F020800E75F010800575F0087D007E0E
:10017C00007F003392D530D503120624EC334010A7
:10018C00EF33FFEE33FEED33FDEC33FCD5F0ED2217
:0E019C00E5F0247EA2D513CC92E7CDCEFF2253
:1001AA00EDD2E7CD33EC3392D524814006E4FFFE4D
:1001BA00FDFC22FCE4CFCECDCC24E0501174FF80AC
:1001CA00EDC3CC13CCCD13CDCE13CECF13CF047049
:0701DA00F030D5DE0206241F
:10066800E5772463F8E60577227860300802786336
:10067800E475F0011206320205652001EB7F2ED2E7
:10068800018018EF540F2490D43440D4FF30050B68
:10069800EF24BFB41A0050032461FFE57860021507
:1006A80078057BE57B7002057A30080D7860E47583
:1006B800F001120632EF0205AB0212AD7403D20844
:1006C8008003E4C208F5778B608A618962E4F57873
:1006D800F57AF57BE57860077F201206A380F5752B
:1006E80079FFC202C201C203C204C206C207C2091C
:1006F800120671FF700D3008057F001206B4AF7B3B
:10070800AE7A22B4255FC2D5C205120671FF24D085
:10071800B40A00501A75F00A787830D50508B6FF83
:100728000106C6A426F620D5047002D20480D92476
:10073800CFB41A00EF5004C2E5D2050209A1D202D3
:1007480080C6D20180C0D20380BCD2D580BAD2067E
:1007580080B47F201206A32003077401B5780040F7
:10076800F1120668FF1206A30206DCD209D207803E
:1007780095120668FB120668FA120668F94A4B7069
:100788000679987A0A7BFF20032EE578602A7E0096
:100798008E8275830012057E60060EEE657970F014
:1007A800C2D5EBC0E0EAC0E0E9C0E0EE120A01D031
:1007B800E0F9D0E0FAD0E0FB120565FF60AAEBC0D3
:1007C800E0EAC0E0E9C0E01206A3D0E02401F9D0D5
:1007D800E03400FAD0E0FBE5790460DCD579D98013
:1007E80087D20380A21209E460F7E5797001041248
:1007F800022BA979600DE579600914F579120A8B45
:10080800EF60F3EA30E702F404C3995077EAF4257D
:10081800790430E701E404F579800D1209E460C138
:10082800EA0579257912022BEA7876F630E701E4B1
:10083800257904D5790420060114120A01E4C0E0E0
:10084800120A8B7876E6601320E70714F612068BF7
:10085800802204F6D0E014C0E07F0012068BE57910
:1008680060071206821579800B300603120682D0C3
:10087800E00206DCD0E00480C51209E460A0E57956
:100888000412022B7876EAF6E57920060260010464
:050898002404120A0116
:10089D0074FF04C0E0120A8B12068BE57920060264
:1008AD006003120682D0E0B579E87F45120695788F
:1008BD0076E67F2B30E7047F2DF404C0E01206A30B
:1008CD00D0E075F00A84C0F012068CD0E012068CD0
:1008DD000206DC791080027908C207C2098008D2AD
:1008ED00D5790A8004790AC2D5E579047002F579C3
:1008FD00E4FAFDFEFF120668FC7B082002131206C7
:10090D0068FD7B1030010A120668FE120668FF7B37
:10091D0020EC3382D592D55013C3E43001069FFFEE
:10092D00E49EFEE42002039DFDE49CFCE4CBF8C2B2
:10093D0002EC700CCFCECDCCE824F8F870F3801714
:10094D00C3EF33FFEE33FEED33FDEC33FCEB33FB46
:10095D00994002FB0FD8E9EB300205F8D0E0C4480E
:10096D00B202C0E00AEC4D4E4F78207B0070C2EA17
:10097D00B5790040BCC0E0120A03D0F0D0E02002EF
:10098D0004C4C0E0C4B202C0F012068CD0F0D5F0A1
:10099D00EB0206DC12064207795308E058074A4C71
:1009AD0007464208E44F08EC4408EC49075F43084A
:1009BD00F25508234608814507ED470AB850074E02
:1009CD002D07522E07752B0756230773200AA12AD0
:1009DD00070E480000076DE579B4FF03757906121F
:1009ED000668FC120668FD120668FE120668FF789E
:1009FD006F02025A790AA2D5200414300609B910E3
:100A0D00020404B9080104A2D520070250010420F4
:100A1D0003689203B578005034C0E07F203004198C
:100A2D007F30A20372077206500F120A5AC203C218
:100A3D0007C206C2097F30800F300603E9C0E012FD
:100A4D0006A3300603D0E0F9D0E0B578CC30061718
:100A5D007F30B9100C1206A37F583005077F7880C0
:100A6D0003B908031206A33003057F2D0206A37FE9
:100A7D00202009F87F2B2007F322920380CF7F00DF
:100A8D00B407005005246FF8E6FF22286E756C6CD4
:100A9D002900D2021206683002F8C202787830D5E9
:100AAD000108F602070E2D5043495812066824031B
:100ABD00B405004001E4900AB393120694743A12FF
:0A0ACD000694D2047578040208E0D4
:1001E100E9D2E7C933E833F892D5EDD2E7CD33EC64
:0701F10033FC5002B2D522DD
:1001F800EC30E7100FBF000C0EBE00080DBD000468
:100208000BEB6014A2D5EB13FCED92E7FD2274FF13
:10021800FCFDFEFF22E480F8A2D574FF13FC7D806C
:03022800E480EF80
:10022B00F920E72824F950037907E4F42402FB189A
:10023B00DBFDE624FB5014E9600DE4F618E604F64A
:0F024B00B40A08E4F6D9F57401F60A22C2D522E6
:10025A00ED33EC3392D5FA602AB4FF33EDC2E77B73
:10026A00FF60067A02797FE4227A02798820D5042F
:10027A007A027983224E614E002B494E46002D495F
:10028A004E4600E47A08F608DAFC7B00740722E896
:10029A00C0E0ECC0E0EDC0E0EEC0E0EFC0E0EA751F
:1002AA00F010A4CAABF075F04DA42BFBE435F0FCBA
:1002BA00EA2410FAEB34C5FBEC34D9FCEDC2E7FFB3
:1002CA0075F056A4F42411C5F0F434C58FF0A42AAD
:1002DA00E5F03BE43CF620E714120525D0E0FFD018
:1002EA00E0FED0E0FDD0E0FC1204588014F40412C1
:1002FA000525D0E0FFD0E0FED0E0FDD0E0FC120002
:10030A0066D0E0F8E6FAEDD2E7CD33EC332482FB8F
:10031A00E4C3CF33CFCE33CECD33CD33DBF37B073C
:10032A0075F00A846004F6081B0AE5F0F6088FF0F7
:10033A00740AA4FFACF08EF0740AA42CFEACF05040
:10034A00010C8DF0740AA42CFDE435F0F608DBDE0E
:03035A0074072203
:10035D00020216E86480F8E933E83360110460F0B6
:10036D00ED33EC337009E8FCE9FDEAFEEBFF220406
:10037D0060DED3EB9FEA9EE99DE8C2E78CF0C2F701
:10038D0095F0400CE8CCF8E9CDF9EACEFAEBCFFBCD
:10039D001201E185D0F05804700320D5B3E8047044
:1003AD00075002B2D502022092D5EC0460F7E4CCDE
:1003BD00C0E0C398F8603B94186008400DD0E0FB96
:1003CD000201F8E4FBFAC9FC8028E830E406E4C930
:1003DD00FBE4CAFCE830E305E4C9CACBFCE85407EA
:1003ED006010F8C3E913F9EA13FAEB13FBEC13FCF5
:1003FD00D8F130F52FC3E49CFCEF9BFFEE9AFEED98
:10040D0099FDD0E0FBEF4E4D4C701222DB03020242
:10041D001DEC2CFCEF33FFEE33FEED33FDED30E73D
:10042D00EB0201F8EF2BFFEE3AFEED39FDD0E0FBCC
:10043D0050130BBB0003020220ED13FDEE13FEEF74
:08044D0013FFEC13FC0201F89F
:10045500020220EC5D046005E859047003020216EF
:100465001201E1580460F6EC4860F2EC7004FDFE00
:10047500FF22C860DB2481C85009C398600250067A
:1004850002021D9850CAF582E9294B4A7005AB82D4
:1004950002020C75F0007C1A7880C3EF9BEE9AED92
:1004A50099400DC3EF9BFFEE9AFEED99FDE842F0F2
:1004B500DC23ACF0D0E0FFD0E0FED0E0FDAB822045
:1004C500E7101BEB60BAEC2CFCEF33FFEE33FEEDCF
:1004D50033FD0201F8E803F830E705C0F075F000D8
:1004E500EF2FFFEE33FEED33FD40B830E7C280AAB3
:1004F5003F8000004120000042C80000447A00000F
:10050500461C400047C35000497424004B18968090
:100515004CBEBC205A0E1BCA6753C21C749DC5AE87
:10052500FB60065407601C2323120553EB54386007
:100535000912053F12054E120066ECF8EDF9EEFAC8
:10054500EFCB22EB12054E80F1543803241C9004A6
:10055500F5FE93FC0EEE93FD0EEE930ECE93FF2269
:0300000002103DAE
:0C103D00787FE4F6D8FD75817B021084FA
:10056500BB010689828A83E0225002E722BBFE0294
:09057500E32289828A83E49322C7
:10057E00BB010CE58229F582E5833AF583E0225032
:10058E0006E92582F8E622BBFE06E92582F8E2227C
:0D059E00E58229F582E5833AF583E4932296
:1005AB00BB010689828A83F0225002F722BBFE012F
:0205BB00F32229
:1005BD00EF8DF0A4A8F0CF8CF0A428CE8DF0A42E52
:0205CD00FE220C
:1005CF00BC000BBE0029EF8DF084FFADF022E4CC10
:1005DF00F875F008EF2FFFEE33FEEC33FCEE9DECD9
:1005EF00984005FCEE9DFE0FD5F0E9E4CEFD22ED1F
:1005FF00F8F5F0EE8420D21CFEADF075F008EF2F69
:10060F00FFED33FD4007985006D5F0F222C398FD59
:05061F000FD5F0EA22F6
:0E062400C3E49FFFE49EFEE49DFDE49CFC22E7
:10063200FAE6FB0808E6F925F0F618E6CA3AF622C9
:10064200D083D082F8E4937012740193700DA3A347
:1006520093F8740193F5828883E47374029368605B
:06066200EFA3A3A380DF5B
:1012AD00EFB40A07740D1212B8740A309811A89988
:1012BD00B8130CC2983098FDA899C298B811F630A1
:0712CD0099FDC299F5992279
:10104900020FAFE493A3F8E493A34003F68001F2FF
:1010590008DFF48029E493A3F85407240CC8C333A8
:10106900C4540F4420C8834004F456800146F6DF77
:10107900E4800B01020408102040809010C9E47E2E
:10108900019360BCA3FF543F30E509541FFEE4936C
:10109900A360010ECF54C025E060A840B8E493A333
:1010A900FAE493A3F8E493A3C8C582C8CAC583CA5E
:1010B900F0A3C8C582C8CAC583CADFE9DEE780BE16
:01111D0000D1
:00000001FF
