:0C05A800C0F9A4B0999282F88090BFFFC7
:1003AD00092C000B0B0B0B0B0B0B0BC18102560019
:1003BD000001280401260001590001270001351410
:1003CD0002290FA0012B0101580020203601020443
:1003DD000810204080804020100804020181422432
:1003ED0018814224181824428118244281022400C5
:0903FD0000012201012300C100EE
:0404AF007F057E0047
:1004B3007D4D7C03AB07AA06D3EB9400EA9400407E
:1004C30007EB1B70F31A80F0ED1D70011CED4C70EF
:0104D300E345
:0104D4002205
:03057700FD7FC045
:0E057A008D8053A01FEF42A08D8053A01F2242
:100518007DFF7F8012057AE4FD7FA012057A7DFFBA
:0A0528007FC012057A7FE002057A19
:10000E00E5B0540FFF640F6065E55970617F05FE22
:10001E001204B3E5B0540FFF640F70030201C08FDA
:10002E0059E52660030201C0E55964076003020129
:10003E00C0752D0B752E0B752F0B75300B75310B87
:10004E0075320B75330AE535B45A0475340422E55E
:10005E0035B43C0475340322E535B41E0475340200
:10006E0022E535640A60030201C075340122EF6493
:10007E000F60030201C0E55970030201C01204AF04
:10008E00E5B0540F640F60030201BDE5267020E554
:10009E0059B4071B752D0B752E0B752F0B75300B69
:1000AE0075310B75320B75330B75340B0201BDE5D3
:1000BE005924F9700302018124FC700302015B24B0
:1000CE00FE600B1460030201BDB2010201BDE52604
:1000DE007022752601752101752804752D0A852B50
:1000EE002E752F0A75300B75310B852832F533F5C9
:1000FE00340201BDE526B401067526020201BDE5F6
:10010E0026640260030201BDF52685212BAF28FE71
:10011E007C037DE81205658E298F2AE52BB4010636
:10012E00AD287F01801FE52BB40206AD287F02802B
:10013E0014E52BB40306AD287F038009E52BB40428
:10014E0007AD287F041205321204AF8062E526B493
:10015E00010AE5216404602805218024E526640255
:10016E00704DE528640C60020528E528C3940A400A
:10017E003B8026E526B4010DE521640160021521C0
:10018E0085212E802AE526B40225E5286404600226
:10019E001528E528C3940A4013E52875F00A84F55E
:1001AE0031E52875F00A8485F0328003852832E423
:0201BE00F559F1
:0101C000221C
:10058800438E805389F0758AAE758CFBC28DD28CF0
:010598002240
:03000B000201C12E
:1001C100C0E0C0F0C083C082C0D075D000C000C004
:0501D10005C006C00797
:1001D6000523E523C3941450030202BE75230005CC
:1001E60057E55770020556FFAE56BE010BBF900885
:1001F600755600755700B200E5266401703630006A
:1002060033E5226401600BE52264026005E522B451
:100216000311E52214FF7401A807088002C333D82E
:10022600FC8040E52214FF7401A807088002C3334E
:10023600D8FC8047E5266402704F30004CE5226406
:10024600056011E5226406600BE52264076005E59A
:1002560022B40818E52214FF7401A807088002C317
:1002660033D8FC1205779005B3E4803BE52214FFF2
:100276007401A807088002C333D8FC120577742CD2
:100286002522F8E69005A8801EE52214FF7401A831
:1002960007088002C333D8FCFD7FC012057A742C90
:1002A6002522F8E69005A893FD7FE012057A05223F
:1002B600E522B409037522010525E525700205240A
:1002C600C3952AE52495294013300110752400753D
:1002D60025000558E558B408037558000527E52795
:1002E600C394644005752700801EE527C3953540F5
:1002F600047DFF800EE52B75F008A4242E2558F802
:08030600E6F4FD7F8012057A88
:10030E00D007D006D005D000D0D0D082D083D0F088
:03031E00D0E032FA
:10040700120588120518D2A9D2AF7D7B7F0112058C
:10041700321204AF7F011204D58F087F03120455EF
:100427008F08E508D394C0400575355A801BE50849
:10043700D39480400575353C800FE508D394404040
:0E0447000575351E800375350A12000E80CD36
:0405B400D2A07F3220
:0805B80000AE071FEE70F922EE
:0F059900D2A11205B4C2A17F321205B8C2A022AE
:0C05C000C2A11205B4D2A17F320205B81E
:08054C001205997FA01204833F
:100554001205B4A2A19202C2A07F321205B8A2026F
:010564002274
:02048300AD07C3
:10048500E4FCC2A07F321205B8ED30E704D2A180AA
:1004950002C2A17F321205B8D2A0ED25E0FD7F3260
:0904A5001205B80CBC08DBC2A072
:0104AE00222B
:1004FB00E4FC1205B4ED25E0FD30A103430501C278
:0C050B00A07F321205B80CBC08E8AF0558
:0105170022C1
:10053200AB05AA0712054CAF02120483120554AF91
:0A054200031204831205540205C0E1
:0204D500AB0773
:1004D70012054CAF031204831205541205997FA12C
:1004E7001204831205541204FBAD071205541205BA
:0304F700C0AF058E
:0104FA0022DF
:02045500AB07F3
:100457001205997F90120483120554AF0312048387
:100467001205541205997F91120483120554120440
:0B047700FBAD071205541205C0AF05D5
:010482002257
:03000000020321D7
:0C032100787FE4F6D8FD7581590203686E
:10056500EF8DF0A4A8F0CF8CF0A428CE8DF0A42EAA
:02057500FE2264
:10032D00020407E493A3F8E493A34003F68001F2DB
:10033D0008DFF48029E493A3F85407240CC8C333D1
:10034D00C4540F4420C8834004F456800146F6DFA0
:10035D00E4800B01020408102040809003ADE47E80
:10036D00019360BCA3FF543F30E509541FFEE49395
:10037D00A360010ECF54C025E060A840B8E493A35C
:10038D00FAE493A3F8E493A3C8C582C8CAC583CA87
:10039D00F0A3C8C582C8CAC583CADFE9DEE780BE3F
:0104060000F5
:00000001FF
