:0E08D700C0F9A4B0999282F88090BFFF8EC144
:1007F9000925000102030405060708023200000268
:10080900340000023B0000023D0000022E0000C13E
:100819000402300000023F0000C100C181C183C150
:0E082900020136FF022100000123010124001C
:0808E5007F3B7E5ADEFEDFFCC2
:0108ED0022E8
:0308B500FD7FC004
:0E08B8008D8053A01FEF42A08D8053A01F2201
:100888007DFF7F801208B8E4FD7FA01208B87DFFC5
:0A0898007FC01208B87FE00208B824
:1003930075260C75270B75280BC3E5389410E537C4
:1003A3009427400FAE37AF387C277D101201E38FBF
:1003B30029800EC3E53894E8E5379403401975297D
:1003C3000BAE37AF387C037DE81201E37C007D0A76
:1003D3001201E38D2A8011C3E5389464E537940054
:1003E300403B75290B752A0BAE37AF387C007D6413
:1003F3001201E37C007D0A1201E38D2BAE37AF3887
:100403007C007D0A1201E37C007D0A1201E38D2C3E
:0E041300AE37AF387C007D0A1201E38D2D223A
:1007B40075260D75270B75280B75290B752A0BAE3D
:1007C40039AF3A7C007D641201E37C007D0A12019A
:1007D400E38D2BAE39AF3A7C007D0A1201E37C0035
:1007E4007D0A1201E38D2CAE39AF3A7C007D0A12EA
:0507F40001E38D2D2240
:10053500E5B0540FFF640F601DE5224521701712C9
:1005450008E5E5B0540FFF640F605CE522452170B6
:1005550056F5218F2222EF640F704CE5224521606C
:10056500461208E5E5B0540F640F7036E5224521C3
:100575006030E521702CE52224F9602424FC600F0D
:1005850024FE600714701BB2038017B2018013B2FA
:100595000020000E7D667F401200031208E58002F0
:0705A500B202E4F521F5228A
:0105AC00222C
:1008A200438E805389F0438904E4F58AF58CC28D26
:0308B200C28C22D3
:1008C600438E4053890F758B50758DFBC28FD28E28
:0108D60022FF
:03001B0002024698
:10024600C0E0C083C082C0D075D000C000C005C069
:0102560007A0
:100257000524E524C394144079752400300347200E
:100267000226E52364067020E52314FF7401A8071E
:10027700088002C333D8FC1208B574252523F8E695
:100287009008D793547F8038E52314FF7401A8079B
:10029700088002C333D8FC1208B574252523F8E675
:1002A7009008D793801AE52314FF7401A8070880E4
:1002B70002C333D8FCFD7FC01208B89008E2E4936C
:1002C700FD7FE01208B80523E523C39409400375B1
:1002D7002301052FE52F7002052EC39410E52E94F8
:1002E70027401A752E00752F00C28CAF8CEFAD8A90
:1002F700F537EDF538758C00758A00D28C0531E538
:100307003170020530C39420E53094034006753000
:100317000075310030015F7536FF3002055336FD39
:1003270080035336FEC3E53A945EE53994015016CF
:10033700C3E53A94FAE5399400500EC3E53A94962A
:10034700E539940040035336FBC3E5389410E5378D
:1003570094275015C3E53894E8E5379403400DE535
:10036700389488E537941350035336F72000035326
:0D03770036EFAD3680027DFF7F801208B8A2
:0F038400D007D005D000D0D0D082D083D0E032C7
:1005AD001208881208A21208C6D2ABD2AF7D667FA0
:1005BD00401200031208E5120535E531648F700411
:1005CD00E5306401600CE531641F7004E5306403AF
:1005DD0070317F03120867AC07E412012E7B487A55
:1005ED00E179FA783F12001E1201628E398F3A308E
:1005FD0000047D668008E539C313E53A13FD7F409D
:10060D001200032002051207B480AC3002A91203B8
:03061D009380A423
:10075B00D2A1D2A0000000000000000000000000A9
:10076B00000000000000000000000000000000007E
:10077B00000000000000000000000000C2A100000B
:10078B00000000000000000000000000000000005E
:10079B00000000000000000000000000000000004E
:0907AB00000000000000C2A022C1
:10083800C2A1D2A0000000000000000000000000DB
:1008480000000000000000000000000000000000A0
:0F085800000000000000000000000000D2A122FC
:1004AD00300504C2A18002D2A100000000000000AE
:1004BD00000000000000000000000000000000002F
:1004CD00000000000000000000000000000000001F
:1004DD0000D2A0000000000000000000000000009D
:1004ED0000000000000000000000000000000000FF
:1004FD000000000000000000000000C2A0D2A1001A
:10050D0000000000000000000000000000000000DE
:10051D0000000000000000000000000000000000CE
:08052D000000000000000022A4
:0B06200012068D12062BAF0512068D8E
:10062B00D2A100000000000000000000000000004C
:10063B0000000000000000000000000000000000AF
:10064B0000000000000000000000D2A0000000002D
:10065B00000000000000000000000000000000008F
:10066B00000000000000000000000000000000007F
:10067B000000000030A107C2A0120838C322C2A09C
:02068B00D32278
:10068D00E4FEEF30E704D2A18002C2A10000000019
:10069D00000000000000000000000000000000004D
:1006AD00000000000000000000000000000000003D
:1006BD0000000000D2A0EF25E0FF000000000000C8
:1006CD00000000000000000000000000000000001D
:1006DD00000000000000000000000000000000000D
:0806ED000000C2A00EBE089A35
:0106F50022E2
:1006F600E4FED2A0000000000000000000000000A0
:1007060000000000000000000000000000000000E3
:10071600000000000000000000000000EF25E0FFE0
:1007260030A103430701C2A0000000000000000042
:1007360000000000000000000000000000000000B3
:1007460000000000000000000000000000000000A3
:040756000EBE089E2D
:01075A00227C
:02086700AD07DB
:1008690012075B7F9012062012075B7F9112068D9B
:0E08790012062B1206F6C2051204AD12083844
:01088700224E
:10000300AC0712075B7F9012068D12062BAF04120A
:05001300062002083880
:10001E00EC4D6011E8497017ED33EC3304600DE4DC
:10002E00FCFFFEFD22E933E8330470F80201CE1224
:10003E00019958046009E4CC248150062850090225
:10004E0001D82840030201D5C0E0EB4A7044B980C4
:10005E0006D0E0FB0201C4EF4E701CBD8008EBFF22
:10006E00EAFEE9FD80EBE98DF0A4FEE5F002010762
:10007E00E9CDF9EAFEEBFFEF89F0A4FCE5F0CE89BD
:10008E00F0A42EFFE435F0CD89F0A42DFEE435F07A
:10009E008067EF4E7005BD80D780C3EF8BF0A4ACA8
:1000AE00F0EE8BF0A42CFCE435F0F8EF8AF0A42CE3
:1000BE00E5F038FCE433CB8DF0A42CFCE5F03BF8F6
:1000CE00EE8AF0A42CFCE5F038F8E433CF89F0A4E6
:1000DE002CFCE5F038CF3400CE89F0A42FFFE5F0EC
:1000EE003EFEE433C98DF0A42EFEE5F039CD8AF044
:1000FE00A42FFFE5F03EFEE43DFD33D0E0FB5007BC
:10010E000BBB000F0201D8EC2CFCEF33FFEE33FEDD
:06011E00ED33FD0201B00B
:1001240075F020800E75F010800575F0087D007E56
:10013400007F003392D530D503120238EC334010DF
:10014400EF33FFEE33FEED33FDEC33FCD5F0ED225F
:0E015400E5F0247EA2D513CC92E7CDCEFF229B
:10016200EDD2E7CD33EC3392D524814006E4FFFE95
:10017200FDFC22FCE4CFCECDCC24E0501174FF80F4
:10018200EDC3CC13CCCD13CDCE13CECF13CF047091
:07019200F030D5DE02023857
:10019900E9D2E7C933E833F892D5EDD2E7CD33ECAC
:0701A90033FC5002B2D52225
:1001B000EC30E7100FBF000C0EBE00080DBD0004B0
:1001C0000BEB6014A2D5EB13FCED92E7FD2274FF5C
:1001D000FCFDFEFF22E480F8A2D574FF13FC7D80B5
:0301E000E480EFC9
:03000000020421D6
:0C042100787FE4F6D8FD75814002046885
:1001E300BC000BBE0029EF8DF084FFADF022E4CC00
:1001F300F875F008EF2FFFEE33FEEC33FCEE9DECC9
:10020300984005FCEE9DFE0FD5F0E9E4CEFD22ED0E
:10021300F8F5F0EE8420D21CFEADF075F008EF2F58
:10022300FFED33FD4007985006D5F0F222C398FD49
:050233000FD5F0EA22E6
:0E023800C3E49FFFE49EFEE49DFDE49CFC22D7
:10042D000205ADE493A3F8E493A34003F68001F233
:10043D0008DFF48029E493A3F85407240CC8C333D0
:10044D00C4540F4420C8834004F456800146F6DF9F
:10045D00E4800B01020408102040809007F9E47E2F
:10046D00019360BCA3FF543F30E509541FFEE49394
:10047D00A360010ECF54C025E060A840B8E493A35B
:10048D00FAE493A3F8E493A3C8C582C8CAC583CA86
:10049D00F0A3C8C582C8CAC583CADFE9DEE780BE3E
:0108370000C0
:00000001FF
