:0C061100C0F9A4B0999282F88090BFFF5D
:1005BB00090A0001020304050607080113000108DC
:0405CB000001090022
:08061D007F3B7E5ADEFEDFFC8C
:0106250022B2
:0C06050053A01FEF42A08D8053A01F22C5
:10058B007DFF7F80120605E4FD7FA01206057DFF2F
:0A059B007FC01206057FE00206058E
:10042700E5B0540FFF640F6017E513701312061D34
:10043700E5B0540FFF640F6046E51370428F132237
:10044700EF640F703AE513603612061DE5B0540FDE
:10045700640F7028E513602424F9601A24FC6011E6
:1004670024FE6008147015750B07800D750B068048
:0F04770008750B058003750B04750C0AE4F5136B
:010486002253
:10001E0075B00FC2C4C2C2E5C05404C454F0FFE5AB
:10002E00B0543F4FFFE5C0541033333354F84FFFF5
:10003E0075B0F0D2C4D2C2E5C05404C454F0FEE58B
:10004E00B0543F4EFEE5C05410FD33333354F84EDA
:10005E004207EFF46059E513705512061D75B00F87
:10006E00C2C4C2C2E5C05404C454F0FFE5B0543F4C
:10007E004FFFE5C0541033333354F84FFF75B0F0D3
:10008E00D2C4D2C2E5C05404C454F0FEE5B0543F0D
:10009E004EFEE5C0541033333354F84E4207EFF49E
:1000AE0070030201CCE51360030201CC8F1322EF23
:1000BE00F460030201CCE51370030201CC12061D9D
:1000CE0075B00FC2C4C2C2E5C05404C454F0FFE5FB
:1000DE00B0543F4FFFE5C0541033333354F84FFF45
:1000EE0075B0F0D2C4D2C2E5C05404C454F0FEE5DB
:1000FE00B0543F4EFEE5C0541033333354F84E42E5
:10010E0007EFF460030201CCE51370030201CC1279
:10011E000565016377015E7B01597D01547E018087
:10012E00B70178BB0170BD0168BE01A0D70198DB95
:10013E000190DD0188DE01C0E701B8EB01B0ED01F1
:10014E00A8EE000001C9E4F50B8062E4F50B8065B2
:10015E00E4F50B8028E4F50B802B750B01750C0173
:10016E008056750B01E4F50C804EE4F50B750C0909
:10017E008046E4F50B750C08803E750B01750C0579
:10018E008036750B01750C04802E750B01750C03F2
:10019E008026750B01750C02801E750B01750C09FE
:1001AE008016750B01750C08800E750B01750C070A
:0E01BE008006750B01750C06750D0AE4F5132D
:0101CC002210
:1005E500438E4053890F758B50758DFBC28FD28E0C
:0105F50022E3
:03001B000204E0FC
:1004E000C0E0C083C082C0D075D000C000C005C0CD
:0104F0000704
:1004F1000508E5086414702EF508AF0904A807087B
:100501008002C333D8FCFD7FC0120605740B250998
:10051100F8E690061193FD7FE01206050509E5094D
:06052100B4080375090097
:0F052700D007D005D000D0D0D082D083D0E03222
:0F05F60012058B1205E5D2ABD2AF12001E80FBAF
:10048700D2A1D2A000000000000000000000000080
:100497000000000000000000000000000000000055
:1004A700000000000000000000000000C2A10000E2
:1004B7000000000000000000000000000000000035
:1004C7000000000000000000000000000000000025
:0904D700000000000000C2A02298
:10053600C2A1D2A0000000000000000000000000E0
:1005460000000000000000000000000000000000A5
:0F055600000000000000000000000000D2A12201
:0B01CD001203591202F71203C2C20015
:1001D800300004C2A18002D2A1000000000000008B
:1001E8000000000000000000000000000000000007
:1001F80000000000000000000000000000000000F7
:1002080000D2A00000000000000000000000000074
:1002180000000000000000000000000000000000D6
:100228000000000000000000000000C2A0D2A100F1
:1002380000000000000000000000000000000000B6
:1002480000000000000000000000000000000000A6
:0802580000000000000000227C
:0B02EC001203591202F7AF051203596C
:1002F700D2A1000000000000000000000000000084
:1003070000000000000000000000000000000000E6
:1003170000000000000000000000D2A00000000064
:1003270000000000000000000000000000000000C6
:1003370000000000000000000000000000000000B6
:100347000000000030A107C2A0120536C322C2A0D8
:02035700D322AF
:10035900E4FEEF30E704D2A18002C2A10000000050
:100369000000000000000000000000000000000084
:100379000000000000000000000000000000000074
:1003890000000000D2A0EF25E0FF000000000000FF
:100399000000000000000000000000000000000054
:1003A9000000000000000000000000000000000044
:0803B9000000C2A00EBE089A6C
:0103C1002219
:1003C200E4FED2A0000000000000000000000000D7
:1003D200000000000000000000000000000000001B
:1003E200000000000000000000000000EF25E0FF18
:1003F20030A103430701C2A000000000000000007A
:1004020000000000000000000000000000000000EA
:1004120000000000000000000000000000000000DA
:040422000EBE089E64
:0104260022B3
:1005D000AC071204877FA01203591202F7AF04126E
:0505E00002EC020536EB
:02000300AD0747
:100005001204877FA01202EC1204877FA11201CD92
:030015001205369B
:0100180022C5
:0205A500AD07A0
:1005A7001204877F901202EC1204877F911201CD0B
:0305B700120536F4
:0105BA00221E
:0300000002026099
:0C026000787FE4F6D8FD7581200202A72B
:10056500D083D082F8E4937012740193700DA3A325
:1005750093F8740193F5828883E473740293686039
:06058500EFA3A3A380DF39
:10026C000205F6E493A3F8E493A34003F68001F2AD
:10027C0008DFF48029E493A3F85407240CC8C33393
:10028C00C4540F4420C8834004F456800146F6DF62
:10029C00E4800B01020408102040809005BBE47E32
:1002AC00019360BCA3FF543F30E509541FFEE49357
:1002BC00A360010ECF54C025E060A840B8E493A31E
:1002CC00FAE493A3F8E493A3C8C582C8CAC583CA49
:1002DC00F0A3C8C582C8CAC583CADFE9DEE780BE01
:0105CF00002B
:00000001FF
