:0C050900C0F9A4B0999282F88090BFFF66
:1004DD000908000B0B0B0B0A060708011500011686
:0104ED00000E
:080515007F3B7E5ADEFEDFFC95
:01051D0022BB
:0D04EF00E5A0541F4FF5A08D8053A01F22E3
:1004AF007DFF7F801204EF7FC01204EF7FE0120404
:0804BF00EFE4FD7FA00204EF51
:10000300E5B0540FFF640F6017E515701312051563
:10001300E5B0540FFF640F6046E51570428F15225B
:10002300EF640F703AE5156036120515E5B0540F0D
:10003300640F702BE515602724F9601A24FC601106
:1000430024FE6008147015750907800D7509068074
:0F005300087509058003750904750A0AE4F51597
:01006200227B
:0D04FC00438E0475D72075D6D1438E102293
:030063000203A5F0
:1003A500C0E0C083C082C0D075D000C000C005C009
:1003B50007AF167401A807088002C333D8FCFD7F78
:1003C500C01204EFE516B4060C2409F8E6900509F9
:1003D50093547F800A74092516F8E690050993FD64
:1003E5007FE01204EF0516E516C394084003751661
:1003F50000D007D005D000D0D0D082D083D0E03255
:10032C001204AF1204FC43AF04D2AF1204058F14B5
:10033C008E138D128C11750D0AE4FFFE7D207C410D
:10034C00AB14AA13A912A8111200661201AAAB07CA
:10035C00AA067C007D6412023D7C007D0A12023DDF
:10036C008D0E7C007D0AAF03AE0212023D7C007D37
:10037C000A12023D8D0FE4FFFE7D207C41AB14AAD6
:10038C0013A912A8111200661201AA7C007D0A1290
:09039C00023D8D10120003809255
:100405001204667FCC12043F7F4412043F12046637
:100415007FCC12043F7FBE12043F12048D8F17124A
:10042500048DEFFEE517FFE4AD07AC06120171E49C
:09043500FBFA7980783D120066A3
:01043E00229B
:02043F008F1814
:10044100E4F519C294E5181392941204C7D294E505
:1004510018C313F5180519E519C3940840E57F057C
:050461007E000204CB47
:10048D00E4F518C294E519C313F519D29430940309
:10049D004319801204C70518E518C3940840E4AF4A
:0104AD001935
:0104AE00222B
:10046600C200D2947F0C7E001204CBC2947F507ED1
:10047600001204CBD2947F0A7E001204CBA294927F
:06048600001204C7A200F1
:01048C00224D
:0404C7007F057E002F
:1004CB007C007D0A12022BEF1FAC0670011E4C70D4
:0204DB00F62207
:10006600EC4D6011E8497017ED33EC3304600DE494
:10007600FCFFFEFD22E933E8330470F80202161293
:1000860001E158046009E4CC248150062850090295
:10009600022028400302021DC0E0EB4A7044B980EA
:1000A60006D0E0FB02020CEF4E701CBD8008EBFF91
:1000B600EAFEE9FD80EBE98DF0A4FEE5F002014FD2
:1000C600E9CDF9EAFEEBFFEF89F0A4FCE5F0CE8975
:1000D600F0A42EFFE435F0CD89F0A42DFEE435F032
:1000E6008067EF4E7005BD80D780C3EF8BF0A4AC60
:1000F600F0EE8BF0A42CFCE435F0F8EF8AF0A42C9B
:10010600E5F038FCE433CB8DF0A42CFCE5F03BF8AD
:10011600EE8AF0A42CFCE5F038F8E433CF89F0A49D
:100126002CFCE5F038CF3400CE89F0A42FFFE5F0A3
:100136003EFEE433C98DF0A42EFEE5F039CD8AF0FB
:10014600A42FFFE5F03EFEE43DFD33D0E0FB500773
:100156000BBB000F020220EC2CFCEF33FFEE33FE4C
:06016600ED33FD0201F87B
:10016C0075F020800E75F010800575F0087D007E0E
:10017C00007F003392D530D503120292EC3340103D
:10018C00EF33FFEE33FEED33FDEC33FCD5F0ED2217
:0E019C00E5F0247EA2D513CC92E7CDCEFF2253
:1001AA00EDD2E7CD33EC3392D524814006E4FFFE4D
:1001BA00FDFC22FCE4CFCECDCC24E0501174FF80AC
:1001CA00EDC3CC13CCCD13CDCE13CECF13CF047049
:0701DA00F030D5DE020292B5
:1001E100E9D2E7C933E833F892D5EDD2E7CD33EC64
:0701F10033FC5002B2D522DD
:1001F800EC30E7100FBF000C0EBE00080DBD000468
:100208000BEB6014A2D5EB13FCED92E7FD2274FF13
:10021800FCFDFEFF22E480F8A2D574FF13FC7D806C
:03022800E480EF80
:030000000202A059
:0C02A000787FE4F6D8FD7581200202E7AB
:10022B00EF8DF0A4A8F0CF8CF0A428CE8DF0A42EE7
:02023B00FE22A1
:10023D00BC000BBE0029EF8DF084FFADF022E4CCA5
:10024D00F875F008EF2FFFEE33FEEC33FCEE9DEC6E
:10025D00984005FCEE9DFE0FD5F0E9E4CEFD22EDB4
:10026D00F8F5F0EE8420D21CFEADF075F008EF2FFE
:10027D00FFED33FD4007985006D5F0F222C398FDEF
:05028D000FD5F0EA228C
:0E029200C3E49FFFE49EFEE49DFDE49CFC227D
:1002AC0002032CE493A3F8E493A34003F68001F239
:1002BC0008DFF48029E493A3F85407240CC8C33353
:1002CC00C4540F4420C8834004F456800146F6DF22
:1002DC00E4800B01020408102040809004DDE47ED1
:1002EC00019360BCA3FF543F30E509541FFEE49317
:1002FC00A360010ECF54C025E060A840B8E493A3DE
:10030C00FAE493A3F8E493A3C8C582C8CAC583CA08
:10031C00F0A3C8C582C8CAC583CADFE9DEE780BEC0
:0104EE00000D
:00000001FF
