:0C027F00C0F9A4B0999282F88090BFFFF3
:100227000908000B0B0B0B0A060708011100011246
:0102370000C6
:08028B007F3B7E5ADEFEDFFC22
:010293002248
:0D026500E5A0541F4FF5A08D8053A01F226F
:10020F007DFF7F801202657FC01202657FE01202C0
:08021F0065E4FD7FA002026509
:10000300E5B0540FFF640F6017E511701312028BF4
:10001300E5B0540FFF640F6046E51170428F112263
:10002300EF640F703AE511603612028BE5B0540F9E
:10003300640F702BE511602724F9601A24FC60110A
:1000430024FE6008147015750907800D7509068074
:0F005300087509058003750904750A0AE4F5119B
:01006200227B
:0D027200438E0475D72075D6D1438E10221F
:030063000200F2A6
:1000F200C0E0C083C082C0D075D000C000C005C0BF
:1001020007AF127401A807088002C333D8FCFD7F31
:10011200C0120265E512B4060C2409F8E690027FCB
:1001220093547F800A74092512F8E690027F93FDAA
:100132007FE01202650512E512C3940840037512AE
:1001420000D007D005D000D0D0D082D083D0E0320A
:1001520012020F12027243AF04D2AF1201C912018E
:10016200ECE515C4540FF509E515540FF50A750BA6
:100172000AE514C4540FF50CE514540FF50D750E71
:100182000AE513C4540FF50FE513540FF5101200CE
:030192000380CB1C
:050238000313505908FA
:10025200E4FEC297EF1392A3EFC313FFD2970EBE31
:0202620008F0A2
:010264002277
:10023E00C29300C29700D29300120252AF0512026F
:04024E0052C29322E3
:10019500E4FDC29300C29700D29300120252E4FF1D
:1001A500C297EDC313FD30A303430580D2970FBF5C
:1001B50008EEC29300C29700D29700C2A300D2A353
:0301C50000AF0583
:0101C8002214
:1001C900E4FD7F8E12023EAD137F8012023EAD1414
:1001D9007F8212023EAD157F8412023E7D807F8EA2
:0301E90002023ED1
:1001EC00E4FD7F8E12023E7F811201958F137F8377
:1001FC001201958F147F851201958F157D807F8E4E
:03020C0002023EAD
:0300000002006695
:0C006600787FE4F6D8FD7581150200AD2E
:10007200020152E493A3F8E493A34003F68001F251
:1000820008DFF48029E493A3F85407240CC8C3338F
:10009200C4540F4420C8834004F456800146F6DF5E
:1000A200E4800B0102040810204080900227E47EC5
:1000B200019360BCA3FF543F30E509541FFEE49353
:1000C200A360010ECF54C025E060A840B8E493A31A
:1000D200FAE493A3F8E493A3C8C582C8CAC583CA45
:1000E200F0A3C8C582C8CAC583CADFE9DEE780BEFD
:01023D0000C0
:00000001FF
