:0C01CC003938373635343332310D0A0033
:0B01D8000121000322FF01CC012500E3
:0801E4007F3B7E5ADEFEDFFCCA
:0101EC0022F0
:0E01BE008D8053A01FEF42A08D8053A01F2202
:10019800759850438E40538EFE53890F758BC775E3
:0701A8008DFEC2ABD28E22D6
:100003007DFF7F801201BEE4FD7FA01201BE7DFF54
:0A0013007FC01201BE7FE00201BEB3
:0801ED002000FDD2008F9922D1
:10015A008B088A09890AAB08AA09A90A12017F60D1
:10016A0013050AE50A7002050914F912017FFF1244
:05017A0001ED80E2220E
:1000B200E5B0540FFF640F6017E52570131201E4D9
:1000C200E5B0540FFF640F603BE52570378F2522A2
:1000D200EF640F702FE525602B1201E4E5B0540F99
:1000E200FFBF0F20E525601C24F9600C24FC701171
:1000F2007B007A0079268006AB22AA23A92412016A
:040102005AE4F525A1
:0101060022D6
:03002300020107D0
:0D010700C0E0C0D075D000C000C006C00729
:10011400309831C298AF99BF2320AF2105217426AE
:100124002FF8760DAF21052174262FF8760A742650
:100134002521F87600752100800AAE210521742658
:0B0144002EF8A607309904C299C200F3
:0B014F00D007D006D000D0D0D0E032A6
:0F01AF00120003120198D2ACD2AF1200B280FB43
:03000000020026D5
:0C002600787FE4F6D8FD75813902006D8A
:10017F00BB010689828A83E0225002E722BBFE027E
:09018F00E32289828A83E49322B1
:100032000201AFE493A3F8E493A34003F68001F234
:1000420008DFF48029E493A3F85407240CC8C333CF
:10005200C4540F4420C8834004F456800146F6DF9E
:10006200E4800B01020408102040809001D8E47E55
:10007200019360BCA3FF543F30E509541FFEE49393
:10008200A360010ECF54C025E060A840B8E493A35A
:10009200FAE493A3F8E493A3C8C582C8CAC583CA85
:1000A200F0A3C8C582C8CAC583CADFE9DEE780BE3D
:0101E300001B
:00000001FF
