:0C062500C0F9A4B0999282F88090BFFF49
:0A064900011400010B00020D000077
:0705960093F5807F017E0058
:10059D00D3EF9400EE940040147D4D7C03ED1D705F
:0D05AD00011CED4C70F7EF1F70E61E80E39F
:0105BA00221E
:1005D80075A0A0E4F58075A0807580FF75A0C07532
:0905E80080FF75A0FF7580FF2261
:10034C0020B0277F057E0012059D20B015E51470A6
:10035C0011F50DF50E75A0A0758010751401D2A9BC
:10036C00D2AF30B0030203FB80F830B1030203FBC1
:10037C007F057E0012059D20B172E514606EAC0DF8
:10038C00AD0EE4120119E4FBFAF9783F12000E12DB
:10039C0001528E0D8F0E7C007D0A1201D38D09AE99
:1003AC000DAF0E7C007D641201D37E007F0ACFCD91
:1003BC00CFCECCCE1201D38F10AE0DAF0E7C037D01
:1003CC00E81201D37E007F64CFCDCFCECCCE12010C
:1003DC00D38F0CAE0DAF0E7C037DE81201D38F13BF
:1003EC0075A0A0E4F580C2A9C2AFF51430B1FD220E
:1004880075A0C075800175A0FFE5129006251205BC
:100498009675A0C075800275A0FFE50F93547F1272
:1004A800059775A0C075800475A0FFE50A1205962A
:1004B80075A0C075800875A0FFE51112059675A096
:1004C800C075801075A0FFE51312059675A0C0755C
:1004D800802075A0FFE50C93547F12059775A0C086
:1004E80075804075A0FFE51012059675A0C075804F
:1004F8008075A0FFE50993F5807F017E0002059DC8
:10060500438E805389F0758ACD758CD4C28DD28C7A
:0106150022C2
:03000B00020236B8
:10023600C0E0C0F0C083C082C0D075D000C000C08E
:1002460001C002C003C004C005C006C007050BE517
:100256000BD394635003020331750B00050EE50EB4
:100266007002050DAE0DFF7C007D0A1201D38D09CB
:10027600AE0DAF0E7C007D641201D37E007F0ACFE7
:10028600CDCFCECCCE1201D38F10AE0DAF0E7C03E8
:100296007DE81201D37E007F64CFCDCFCECCCE12C7
:1002A60001D38F0CAE0DAF0E7C037DE81201D38F08
:1002B60013E50E640F7004E50D6427706EAC0DAD8A
:1002C6000E120119E4FBFAF9783F12000E120152E0
:1002D6008E0D8F0E7C007D0A1201D38D09AE0DAFF7
:1002E6000E7C007D641201D37E007F0ACFCDCFCE77
:1002F600CCCE1201D38F10AE0DAF0E7C037DE8126B
:1003060001D37E007F64CFCDCFCECCCE1201D38F6A
:100316000CAE0DAF0E7C037DE81201D38F1375A0D2
:10032600A0758000C2A9C2AF751400D007D006D050
:1003360005D004D003D002D001D000D0D0D082D0D6
:0603460083D0F0D0E0328C
:1005080075120BE4F50F750A05F511F513750C0155
:10051800F510F5091205D812060512034C120488C5
:100528001205708F08E508D39440400875A08075BF
:0C05380080FF80E675A0807580FE80DEEC
:04063100D2A07F28AC
:0806350000AE071FEE70F92270
:0F061600D2A1120631C2A17F28120635C2A0223E
:0C063D00C2A1120631D2A17F28020635AE
:0305F100120544AC
:1005F400120631A2A19200C2A07F28120635A200E1
:0106040022D3
:02054400AD0701
:10054600E4FCC2A07F28120635ED30E704D2A18074
:1005560002C2A17F28120635D2A0ED25E0FD7F2834
:090566001206350CBC08DBC2A032
:01056F002269
:1005BB00E4FC120631ED25E0FD30A103430501C239
:0C05CB00A07F281206350CBC08E8AF0524
:0105D7002201
:100570001206167F901205F17F011205F112063D59
:100580001206167F911205441205F41205BBAD0741
:0505900012063DAF055D
:010595002243
:10000E00EC4D6011E8497017ED33EC3304600DE4EC
:10001E00FCFFFEFD22E933E8330470F80201BE1244
:10002E00018958046009E4CC248150062850090245
:10003E0001C82840030201C5C0E0EB4A7044B980F4
:10004E0006D0E0FB0201B4EF4E701CBD8008EBFF42
:10005E00EAFEE9FD80EBE98DF0A4FEE5F00200F783
:10006E00E9CDF9EAFEEBFFEF89F0A4FCE5F0CE89CD
:10007E00F0A42EFFE435F0CD89F0A42DFEE435F08A
:10008E008067EF4E7005BD80D780C3EF8BF0A4ACB8
:10009E00F0EE8BF0A42CFCE435F0F8EF8AF0A42CF3
:1000AE00E5F038FCE433CB8DF0A42CFCE5F03BF806
:1000BE00EE8AF0A42CFCE5F038F8E433CF89F0A4F6
:1000CE002CFCE5F038CF3400CE89F0A42FFFE5F0FC
:1000DE003EFEE433C98DF0A42EFEE5F039CD8AF054
:1000EE00A42FFFE5F03EFEE43DFD33D0E0FB5007CC
:1000FE000BBB000F0201C8EC2CFCEF33FFEE33FEFE
:06010E00ED33FD0201A02B
:1001140075F020800E75F010800575F0087D007E66
:10012400007F003392D530D503120228EC334010FF
:10013400EF33FFEE33FEED33FDEC33FCD5F0ED226F
:0E014400E5F0247EA2D513CC92E7CDCEFF22AB
:10015200EDD2E7CD33EC3392D524814006E4FFFEA5
:10016200FDFC22FCE4CFCECDCC24E0501174FF8004
:10017200EDC3CC13CCCD13CDCE13CECF13CF0470A1
:07018200F030D5DE02022877
:10018900E9D2E7C933E833F892D5EDD2E7CD33ECBC
:0701990033FC5002B2D52235
:1001A000EC30E7100FBF000C0EBE00080DBD0004C0
:1001B0000BEB6014A2D5EB13FCED92E7FD2274FF6C
:1001C000FCFDFEFF22E480F8A2D574FF13FC7D80C5
:0301D000E480EFD9
:030000000203FCFC
:0C03FC00787FE4F6D8FD758120020443F0
:1001D300BC000BBE0029EF8DF084FFADF022E4CC10
:1001E300F875F008EF2FFFEE33FEEC33FCEE9DECD9
:1001F300984005FCEE9DFE0FD5F0E9E4CEFD22ED1F
:10020300F8F5F0EE8420D21CFEADF075F008EF2F68
:10021300FFED33FD4007985006D5F0F222C398FD59
:050223000FD5F0EA22F6
:0E022800C3E49FFFE49EFEE49DFDE49CFC22E7
:10040800020508E493A3F8E493A34003F68001F2FD
:1004180008DFF48029E493A3F85407240CC8C333F5
:10042800C4540F4420C8834004F456800146F6DFC4
:10043800E4800B0102040810204080900649E47E05
:10044800019360BCA3FF543F30E509541FFEE493B9
:10045800A360010ECF54C025E060A840B8E493A380
:10046800FAE493A3F8E493A3C8C582C8CAC583CAAB
:10047800F0A3C8C582C8CAC583CADFE9DEE780BE63
:0106530000A6
:00000001FF
