:0C0A9700C0F9A4B0999282F88090BFFFD3
:10086F000923000102030405060708012D00013AC0
:10087F0000013700012C00C100C104013C00C1017F
:10088F00C1020235000002380000072E00010203EA
:0E089F00040506013B0002210000C103C10553
:04093B007F057E00B6
:10093F007D4D7C03AB07AA06D3EB9400EA940040ED
:10094F0007EB1B70F31A80F0ED1D70011CED4C705E
:01095F00E3B4
:010960002274
:0E0A89008D8053A01FEF42A08D8053A01F222E
:1009E4007DFF7F80120A89E4FD7FA0120A897DFFC2
:0A09F4007FC0120A897FE0020A8921
:10076100E4FF1209138F0C7F011209138F0D7F0211
:10077100120913AD07E52F75F00AA4FFE5307A00E1
:100781002FFFEA35F0FEE50C6F7001EE7031E531B7
:1007910075F00AA4FFE5322FFFEA35F0FEE50DB54D
:1007A100071DEAB50619E53375F00AA4FFE5342FF4
:1007B100FFEA35F0FEEDB50706EAB50602D322C31E
:0107C1002215
:1009A700E50AC394074006E50A9422400DE50AB418
:1009B700220BE5097007E5087003D20022C2002266
:1004EE00300032E52C702EE50AC4540FF524E50ACF
:1004FE00540FF52575260AE509C4540FF527E509AD
:10050E00540FF52875290AE508C4540FF52AE50895
:10051E00540FF52B22E52C706075240A75250AE51B
:10052E003BC394014005852F26800375260BE53BC2
:10053E00C394024005853027800375270BE53BC326
:10054E0094034005853128800375280BE53BC39441
:10055E00044005853229800375290BE53BC39405BC
:10056E00400585332A8003752A0BE53BC39406406C
:10057E000585342B8003752B0BE52C640D706A20DA
:10058E00040875240B75250A800675240A75250B3B
:10059E00E53BC394014005852F26800375260BE5A8
:1005AE003BC394024005853027800375270BE53B3E
:1005BE00C394034005853128800375280BE53BC3A2
:1005CE0094044005853229800375290BE53BC394BD
:1005DE0005400585332A8003752A0BE53BC3940637
:0A05EE00400485342B22752B0B22EC
:100A5800438E4053890F758B50758DFBC28FD28E94
:010A6800226B
:10001E0075B00FC2C4C2C2E5C05404C454F0FFE5AB
:10002E00B0543F4FFFE5C0541033333354F84FFFF5
:10003E0075B0F0D2C4D2C2E5C05404C454F0FEE58B
:10004E00B0543F4EFEE5C05410FD33333354F84EDA
:10005E004207EFF4605CE53770587F05FE12093FEA
:10006E0075B00FC2C4C2C2E5C05404C454F0FFE55B
:10007E00B0543F4FFFE5C0541033333354F84FFFA5
:10008E0075B0F0D2C4D2C2E5C05404C454F0FEE53B
:10009E00B0543F4EFEE5C0541033333354F84E4245
:1000AE0007EFF470030202DEE53760030202DE8F13
:1000BE003722EFF460030202DEE53770030202DE40
:1000CE0012093B75B00FC2C4C2C2E5C05404C45479
:1000DE00F0FFE5B0543F4FFFE5C0541033333354B7
:1000EE00F84FFF75B0F0D2C4D2C2E5C05404C45468
:1000FE00F0FEE5B0543F4EFEE5C05410FD333333F1
:10010E0054F84E4207EFF460030202DEE537700347
:10011E000202DE1204C8017E7B01687D01527E015F
:10012E00C0BB01AABD0194BE0208D70202DB01ECDE
:10013E00DD01D6DE02D8E702D3EB02C1ED02AFEE4F
:10014E00000002DBE53BC3940640030202DB053BE5
:10015E00742E253BF8E4F60202DBE53BC394064021
:10016E00030202DB053B742E253BF876040202DB0C
:10017E00E53BC3940640030202DB053B742E253B90
:10018E00F876080202DBE53BC3940640030202DB6D
:10019E00053B742E253BF876010202DBE53BC3944A
:1001AE000640030202DB053B742E253BF876050262
:1001BE0002DBE53BC3940640030202DB053B742ED3
:1001CE00253BF876090202DBE53BC39406400302A9
:1001DE0002DB053B742E253BF876020202DBE53B83
:1001EE00C3940640030202DB053B742E253BF876D2
:1001FE00060202DB752C0D0202D3E53B640660039A
:10020E000202DBF53B120761500FE52C700BD20199
:10021E00F535F536F53C0202DB1207614018E52C88
:10022E007014C201053CE53C640360030202DBF579
:10023E003CD2020202DB30043DE52C640D7037C265
:10024E0004E52F75F00AA42530FDE4FF1209FE1215
:10025E00093BE53175F00AA42532FD7F011209FE36
:10026E0012093BE53375F00AA42534FD7F0212090D
:10027E00FE12093B80541207615009E52CB40D049F
:10028E00D20480491207614044E52C640D703E058E
:10029E003CE53CB40307D202E4F52CF53CC20480E5
:1002AE002CE53BC394065025053B742E253BF87672
:1002BE0003801AE53BC394065013053B742E253B71
:1002CE00F876078008E4F53B8003E4F52CE4F53777
:0102DE0022FD
:03001B000205F8E3
:1005F800C0E0C0F0C083C082C0D075D000C000C0C9
:0D06080001C002C003C004C005C006C00749
:10061500750B00052DE52DC394144032752D00AFE3
:100625003A7401A807088002C333D8FCFD7FC012C5
:100635000A897424253AF8E6900A9793FD7FE0121B
:100645000A89053AE53AC394084003753A0005223C
:10065500E52270020521C394D0E521940740087571
:100665002100752200D2030536E53670020535FFF7
:10067500AE35E4FCFD7B507AC3F9F8D31204B250D1
:1006850008753500753600C2010539E53970020572
:1006950038C39430E53894754008753800753900CD
:1006A500C202300103430B10300203430B40AD0B74
:0506B5007FA0120A897C
:1006BA00D007D006D005D004D003D002D001D00094
:0B06CA00D0D0D082D083D0F0D0E0323E
:100A6900538E7F5389F0758AF4758CFFC28DC28CC1
:010A7900225A
:10081E007E0A758AF4758CFFC290D28CAD061EEDE1
:10082E00600C308DFDA290B39290C28D80EEC28C82
:10083E00E4F58AF58CD28C309103308DFAC28C306F
:10084E008D06C28D7FFF8018AF8CEFAD8AFCE4124F
:10085E0003EA7B967A43798B783C1202DF120423EB
:01086E002267
:1007C200D2ABD2AF120A58120A691209E4120961B5
:1007D2007D41E4FF1209FEE4FFFE12093F7D2B0F6B
:1007E2001209FEE4FFFE12093F7D157F021209FE87
:1007F200E4FFFE12093F300015300312C203120853
:100802001EEFC3941E5007E4F535F536D2011209E6
:0C081200841209A71204EE12001E80DA06
:040AA300D2A07F0559
:080AA70000AE071FEE70F922FA
:0F0A7A00D2A1120AA3C2A17F05120AA7C2A0220D
:0C0AAF00C2A1120AA3D2A17F05020AA76F
:10000300C2A0A20692A17F05120AA7120AA3C2A048
:07001300D2A17F05020AA73C
:080A1800120A7A7FA01208E720
:100A2000120AA3A2A19206C2A07F05120AA7A206DB
:010A300022A3
:0208E700AD075B
:1008E900E4FCC2A07F05120AA7ED30E704D2A1807B
:1008F90002C2A17F05120AA7D2A0ED25E0FD7F055E
:09090900120AA70CBC08DBC2A015
:0109120022C2
:1009C700E4FC120AA3ED25E0FD30A103430501C2B3
:0C09D700A07F05120AA70CBC08E8AF05C1
:0109E30022F1
:1009FE00AB05AA07120A18AF021208E7120A20AFB7
:0A0A0E00031208E7120A20020AAFE3
:02091300AB0730
:10091500120A18AF031208E7120A20120A7A7FA1F9
:100925001208E7120A201209C7AD07D20612000302
:05093500120AAFAF053E
:01093A00229A
:0508AD000308005906DC
:100A4500E4FEC297EF1392A3EFC313FFD2970EBE36
:020A550008F0A7
:010A5700227C
:100A3100C29300C29700D29300120A45AF05120A71
:040A410045C29322F5
:1008B300E4FDC29300C29700D29300120A45E4FFFD
:1008C300C297EDC313FD30A303430580D2970FBF37
:1008D30008EEC29300C29700D29700C2A300D2A32E
:0308E30000AF055E
:0108E60022EF
:10096100E4FD7F8E120A31AD087F80120A31AD0994
:100971007F82120A31AD0A7F84120A317D807F8E17
:03098100020A3136
:10098400E4FD7F8E120A317F811208B38F087F83C2
:100994001208B38F097F851208B38F0A7D807F8E7A
:0309A400020A3113
:1002DF00EC4D6011E8497017ED33EC3304600DE419
:1002EF00FCFFFEFD22E933E8330470F802048F129D
:1002FF00045A58046009E4CC24815006285009029E
:10030F000499284003020496C0E0EB4A7044B98078
:10031F0006D0E0FB020485EF4E701CBD8008EBFF9A
:10032F00EAFEE9FD80EBE98DF0A4FEE5F00203C8DB
:10033F00E9CDF9EAFEEBFFEF89F0A4FCE5F0CE89F9
:10034F00F0A42EFFE435F0CD89F0A42DFEE435F0B6
:10035F008067EF4E7005BD80D780C3EF8BF0A4ACE4
:10036F00F0EE8BF0A42CFCE435F0F8EF8AF0A42C1F
:10037F00E5F038FCE433CB8DF0A42CFCE5F03BF832
:10038F00EE8AF0A42CFCE5F038F8E433CF89F0A422
:10039F002CFCE5F038CF3400CE89F0A42FFFE5F028
:1003AF003EFEE433C98DF0A42EFEE5F039CD8AF080
:1003BF00A42FFFE5F03EFEE43DFD33D0E0FB5007F8
:1003CF000BBB000F020499EC2CFCEF33FFEE33FE56
:0603DF00ED33FD02047184
:1003E50075F020800E75F010800575F0087D007E93
:1003F500007F003392D530D5031204A4EC334010AE
:10040500EF33FFEE33FEED33FDEC33FCD5F0ED229B
:0E041500E5F0247EA2D513CC92E7CDCEFF22D7
:10042300EDD2E7CD33EC3392D524814006E4FFFED1
:10043300FDFC22FCE4CFCECDCC24E0501174FF8030
:10044300EDC3CC13CCCD13CDCE13CECF13CF0470CD
:07045300F030D5DE0204A425
:10045A00E9D2E7C933E833F892D5EDD2E7CD33ECE8
:07046A0033FC5002B2D52261
:10047100EC30E7100FBF000C0EBE00080DBD0004EC
:100481000BEB6014A2D5EB13FCED92E7FD2274FF98
:10049100FCFDFEFF22E480F8A2D574FF13FC7D80F1
:0304A100E480EF05
:030000000206D520
:0C06D500787FE4F6D8FD75813C02071C1C
:0E04A400C3E49FFFE49EFEE49DFDE49CFC2269
:1004B200EB9FF5F0EA9E42F0E99D42F0EC6480C8C1
:0604C20064809845F02261
:1004C800D083D082F8E4937012740193700DA3A3C3
:1004D80093F8740193F5828883E4737402936860D7
:0604E800EFA3A3A380DFD7
:1006E1000207C2E493A3F8E493A34003F68001F266
:1006F10008DFF48029E493A3F85407240CC8C3331A
:10070100C4540F4420C8834004F456800146F6DFE8
:10071100E4800B010204081020408090086FE47E01
:10072100019360BCA3FF543F30E509541FFEE493DD
:10073100A360010ECF54C025E060A840B8E493A3A4
:10074100FAE493A3F8E493A3C8C582C8CAC583CACF
:10075100F0A3C8C582C8CAC583CADFE9DEE780BE87
:0108B2000045
:00000001FF
