:0C04FB00C0F9A4B0999282F88090BFFF75
:1004D800010800010914010B1E010E00010A0002A7
:0304E800150000FC
:0704630093F5807F017E008C
:10046A00D3EF9400EE940040147D4D7C03ED1D7093
:0D047A00011CED4C70F7EF1F70E61E80E3D3
:010487002252
:0700030075A0A0758010221A
:0705070075A0A0E4F58022BD
:1004AA0075A0807580FF75A0A0E4F58075A0C07561
:0904BA0080FF75A0FF7580FF2290
:1003140075A0C075800175A0FFE5149004FB12045C
:100324006375A0C075800275A0FFE51112046375A2
:10033400A0C075800475A0FFE50D12046375A0C00C
:1003440075800875A0FFE51312046375A0C075805D
:100354001075A0FFE51912046375A0C0758020759F
:10036400A0FFE50F12046375A0C075804075A0FF5F
:10037400E51212046375A0C075808075A0FFE50CBA
:0A03840093F5807F017E0002046AF9
:10000E0075B07FC2C4D2C285B01A531A0FE51A64F6
:10001E000F604F7F057E0012046A85B01A531A0FC7
:10002E00E51A640F602E85B01AE51A248960202423
:10003E00FC601524FE600A14701AE4F510050E809B
:10004E0013751003050E800C751006050E800575D0
:10005E001009050EE51A640F600885B01A531A0FC1
:10006E0080F275B0BFD2C4C2C285B01A531A0FE562
:10007E001A640F60587F057E0012046A85B01A5309
:10008E001A0FE51A640F603785B01AE51A24496015
:10009E002024FC601524FE600A14702375100105DF
:1000AE000E801C751004050E8015751007050E8048
:1000BE000EE50870047F0180027F008F08B2AFE565
:1000CE001A640F600885B01A531A0F80F275B0DFEC
:1000DE00D2C4D2C285B01A531A0FE51A640F604DFE
:1000EE007F057E0012046A85B01A531A0FE51A6452
:1000FE000F602C85B01AE51A2429602024FC6015A7
:10010E0024FE600A147018751002050E8011751009
:10011E0005050E800A751008050E8003E4F50EE540
:10012E001A640F600885B01A531A0F80F275B0EF7B
:10013E00D2C4D2C285B01A531A0FE51A640F605397
:10014E007F057E0012046A85B01A531A0FE51A64F1
:10015E000F603285B01AE51A2419602324FC60174B
:10016E0024FE600B14701E7514017511098016752E
:10017E001401751108800E7514017511078006752E
:10018E001401751106E51A640F600885B01A531A2A
:03019E000F80F2DD
:0101A100223B
:1004C300438E805389F0758ACD758CD4C28DD28CBE
:0504D300D2A9D2AF2206
:03000B0002038E5F
:10038E00C0E0C0D075D000C006C007E51824FFFF3E
:10039E00E51734FFFE0516E51670020515D39FE529
:1003AE00159E4024751500751600E50A600875A0A7
:1003BE00807580FE800675A0807580FFE50A70044A
:1003CE007F0180027F008F0AD007D006D0D0D0E008
:0103DE0032EC
:1001A2001204AA1204C3E508607812050775140A3E
:1001B200750F0A75130B75190BE50E700F75110B80
:1001C200750D0B75120B750C0B02027FE50EB40157
:1001D2000685101102027FE50EB4020685100D029B
:1001E200027FE50EB4030685101202027FE50E645B
:1001F20004600302027F85100CE51275F00AA42543
:100202000CF509E51175F00AA4250DF50BC3950946
:10021200500875A0807580FD806375A0807580FF91
:10022200805BE4F50E75140A751101750D0A7513DC
:100232000B75190B750F0B1203DFEF75F00A84F5BE
:1002420012EF75F00A8485F00CEFC39509500EE4A5
:10025200F5111205077517037518208020EFD39545
:100262000B400E7511021200037517007518C88035
:100272000C75110112050775170175189012000E01
:060282001203140201A8A2
:1003DF0012043C7FCC1204157F441204157FC87E93
:1003EF00001204F012043C7FCC1204157FBE1204DD
:1003FF00151204888F1A120488EFC454F0FFE51AFF
:05040F00C4540F4FFF73
:0104140022C5
:020415008F1B3B
:10041700E4F51CC294E51B1392941204ECD294E504
:100427001BC313F51B051CE51CC3940840E57F326D
:050437007E000204F04C
:10048800E4F51BC294E51CC313F51CD29430940305
:10049800431C801204EC051BE51BC3940840E4AF21
:0104A8001C37
:0104A9002230
:10043C00C200D2947F787E001204F0C2947F207E9A
:10044C00031204F0D2947F647E001204F0A2949202
:06045C00001204ECA200F6
:010462002277
:0404EC007F327E00DD
:0B04F000EF1FAC0670011E4C70F622DE
:0300000002028871
:0C028800787FE4F6D8FD7581200202CFDB
:100294000201A2E493A3F8E493A34003F68001F2DD
:1002A40008DFF48029E493A3F85407240CC8C3336B
:1002B400C4540F4420C8834004F456800146F6DF3A
:1002C400E4800B01020408102040809004D8E47EEE
:1002D400019360BCA3FF543F30E509541FFEE4932F
:1002E400A360010ECF54C025E060A840B8E493A3F6
:1002F400FAE493A3F8E493A3C8C582C8CAC583CA21
:10030400F0A3C8C582C8CAC583CADFE9DEE780BED8
:0104EB000010
:00000001FF
