:0D09C500C0F9A4B0999282F88090BFFF00A5
:1007C000090B0C0C0C0C0C0C0C0C0C011D00011C6E
:1007D00000010800C101C104011B0001160001193C
:1007E0000001170002140000C10701181EC103C157
:0B07F00000C10502090000C102C106A3
:1008CF007D4D7C03AB07AA06D3EB9400EA9400405E
:1008DF0007EB1B70F31A80F0ED1D70011CED4C70CF
:0108EF00E325
:0108F00022E5
:0E09AA008D8053A01FEF42A08D8053A01F220E
:10090E007DFF7F801209AAE4FD7FA01209AA7DFF58
:0A091E007FC01209AA7FE00209AAB7
:10047200E5B0540FFF640F6020E51C701C7F05FE81
:100482001208CFE5B0540FFF640F700302061EE599
:100492001C600302061E8F1C22EF640F600302061B
:1004A2001EE51C700302061E7F057E001208CFE5C2
:1004B200B0540F640F600302061EE51C70030206AF
:1004C2001E24F970030205DF24FC70030205A12437
:1004D200FE600B14600302061BB20402061B30040A
:1004E20003020589E51B7039E522C4540F75F00A31
:1004F200A4FFE522540F2FF516E523C4540F75F01F
:100502000AA4FFE523540F2FF519E524C4540F75EF
:10051200F00AA4FFE524540F2FF517751B010206FC
:100522001BE51BB40106751B0202061BE51BB40288
:1005320006751B0302061BE51B6403600302061B10
:10054200F51BE51675F00A84C454F0FFE51675F044
:100552000A84E5F04FF522E51975F00A84C454F0D7
:10056200FFE51975F00A84E5F04FF523E51775F0FC
:100572000A84C454F0FFE51775F00A84E5F04FF5DC
:100582002412088902061BB20330030302061BADC4
:1005920018E4FF1209287F027E001208CF807AE554
:1005A2001BB4010BE517C39417506E0517806AE55B
:1005B2001BB4020BE519C3943B505E0519805AE542
:1005C2001BB4030BE516C3943B504E0516804A300C
:1005D2000347E518C394FF50400518803CE51BB45F
:1005E200010BE517D3940040301517802CE51BB49E
:1005F200020BE519D3940040201519801CE51BB4A9
:10060200030BE516D3940040101516800C30030935
:0C061200E518D3940040021518E4F51C14
:01061E0022B9
:10061F0020046AE51B6035E51775F00A84F50CE5D3
:10062F001775F00A8485F00D750E0AE51975F00A35
:10063F0084F50FE51975F00A8485F01075110AE538
:10064F001675F00A84F512E5160206EA1208ACE5F3
:10065F0024C4540FF50CE524540FF50D750E0AE55F
:10066F0023C4540FF50FE523540FF51075110AE548
:10067F0022C4540FF512E522540FF51322300462F1
:10068F0020032D750C0B750D0B750E0B750F0B7560
:10069F00100BE51A75F0648475F00A8485F011E586
:1006AF001A75F00A8475F00A8485F012E51A802B0A
:1006BF00750C0B750D0B750E0B750F0A75100AE582
:1006CF001875F0648475F00A8485F011E51875F0DB
:1006DF000A8475F00A8485F012E51875F00A84858E
:0306EF00F01322E3
:0D09B800438E0475D72075D6D1438E1022D2
:030063000202B2E4
:1002B200C0E0C0F0C083C082C0D075D000C000C012
:1002C20001C002C003C004C005C006C007E51B7020
:1002D2000FAF1D04A807088002C333D8FC0203A88D
:1002E2000515E51570020514C394F4E51494014054
:1002F20008751400751500B207E51B6401702AE544
:100302001D600464017022300710AF1D7401A8073C
:10031200088002C333D8FC0203A8AF1D7401A807EA
:10032200088002C333D8FC8064E51B6402702DE5AB
:100332001D64036006E51D6404702130070FAF1DC4
:100342007401A807088002C333D8FC8059AF1D741A
:1003520001A807088002C333D8FC8031E51B64037F
:100362007037E51D64066006E51D6407702B3007D3
:100372000FAF1D7401A807088002C333D8FC802682
:10038200AF1D7401A807088002C333D8FCFD7FC0EB
:100392001209AA9009D0E4801CAF1D7401A80708B5
:1003A2008002C333D8FCFD7FC01209AA740C251D3C
:1003B200F8E69009C593FD7FE01209AA051DE51D27
:1003C200C394084003751D0030040E0508E508C3F8
:1003D20094C84005750800D20130067930040BE557
:1003E2001AC3951850047D108002E4FD7FA0120903
:1003F200AA30045AAC18E41201EF7B9A7A997999DF
:10040200783F120066C004C005C006C007AC1AE4FB
:100412001201EFA804A905AA06AB07D007D006D09F
:1004220005D00412016C5026050AE50A700205097E
:10043200C3942CE5099401401C750900750A00302B
:100442000206C2027DFE8008D2027DFF80027DFF8D
:100452007F801209AAD007D006D005D004D003D0DD
:1004620002D001D000D0D0D082D083D0F0D0E03200
:10099900538E7F5389F0758AF4758CFFC28DC28C92
:0109A900222B
:100003007E0A758AF4758CFFC290D28CAD061EED04
:10001300600C308DFDA290B39290C28D80EEC28CA5
:10002300E4F58AF58CD28C208D032091FAC28C30B2
:100033008D06C28D7FFF8018AF8CEFAD8AFCE41272
:1000430001EA7B967A43798B783C1200661202238D
:01005300228A
:10077E00E4FD7F801209AA7D407FA01209AA43AF33
:10078E0004D2AF1209B81209997FE87E031208CF7E
:10079E00D20612090E120889E4FF120861120472C1
:1007AE0030040A300107C2011200038F1A12061F0D
:0207BE0080EBCE
:0507FB0003225950111A
:10098600E4FEC297EF1392A3EFC313FFD2970EBEF6
:0209960008F067
:01099800223C
:10097200C29300C29700D29300120986AF051209F2
:0409820086C2932274
:10080100E4FDC29300C29700D29300120986E4FF6F
:10081100C297EDC313FD30A303430580D2970FBFE9
:1008210008EEC29300C29700D29700C2A300D2A3E0
:0308310000AF0510
:0108340022A1
:10088900E4FD7F8E120972AD227F80120972AD23B9
:100899007F82120972AD247F841209727D807F8E56
:0308A900020972CF
:1008AC00E4FD7F8E1209727F811208018F227F83F3
:1008BC001208018F237F851208018F247D807F8E83
:0308CC00020972AC
:0409D200D2A07F052B
:0809D60000AE071FEE70F922CC
:0F005400D2A11209D2C2A17F051209D6C2A022E1
:0C09DE00C2A11209D2D2A17F050209D6E5
:10095B00C2A0A20892A17F051209D61209D2C2A089
:07096B00D2A17F050209D6AD
:080942001200547FA0120835D9
:10094A001209D2A2A19208C2A07F051209D6A20852
:01095A00227A
:02083500AD070D
:10083700E4FCC2A07F051209D6ED30E704D2A180FF
:1008470002C2A17F051209D6D2A0ED25E0FD7F05E2
:090857001209D60CBC08DBC2A09A
:010860002275
:1008F100E4FC1209D2ED25E0FD30A103430501C25C
:0C090100A07F051209D60CBC08E8AF0569
:01090D0022C7
:10092800AB05AA07120942AF0212083512094AAFED
:0A0938000312083512094A0209DE15
:02086100AB07E3
:10086300120942AF0312083512094A1200547FA13C
:1008730012083512094A1208F1AD07D20812095BB2
:050883001209DEAF05C3
:01088800224D
:10006600EC4D6011E8497017ED33EC3304600DE494
:10007600FCFFFEFD22E933E8330470F802028F121A
:10008600025A58046009E4CC24815006285009021B
:100096000299284003020296C0E0EB4A7044B980F8
:1000A60006D0E0FB020285EF4E701CBD8008EBFF18
:1000B600EAFEE9FD80EBE98DF0A4FEE5F002014FD2
:1000C600E9CDF9EAFEEBFFEF89F0A4FCE5F0CE8975
:1000D600F0A42EFFE435F0CD89F0A42DFEE435F032
:1000E6008067EF4E7005BD80D780C3EF8BF0A4AC60
:1000F600F0EE8BF0A42CFCE435F0F8EF8AF0A42C9B
:10010600E5F038FCE433CB8DF0A42CFCE5F03BF8AD
:10011600EE8AF0A42CFCE5F038F8E433CF89F0A49D
:100126002CFCE5F038CF3400CE89F0A42FFFE5F0A3
:100136003EFEE433C98DF0A42EFEE5F039CD8AF0FB
:10014600A42FFFE5F03EFEE43DFD33D0E0FB500773
:100156000BBB000F020299EC2CFCEF33FFEE33FED3
:06016600ED33FD02027101
:10016C0074F8CC6480CCC86480C8F58204604FC33A
:10017C00EB9FF5F0EA9E42F0E99D42F0E89C45F0D9
:10018C00603C501DE5825FFFE582D313CB5BCBF463
:10019C002B5582FB50280ABA002409B9002008808C
:1001AC001DE5825BFBE582D313CF5FCFF4C3132F26
:1001BC005582FF50090EBE00050DBD00010CC3EBAE
:1001CC009FF5F0EA9E42F0E99D42F0E89C45F06014
:0901DC0007CC4820E701B3EC2236
:1001E50075F020800E75F010800575F0087D007E95
:1001F500007F003392D530D5031202A4EC334010B2
:10020500EF33FFEE33FEED33FDEC33FCD5F0ED229D
:0E021500E5F0247EA2D513CC92E7CDCEFF22D9
:10022300EDD2E7CD33EC3392D524814006E4FFFED3
:10023300FDFC22FCE4CFCECDCC24E0501174FF8032
:10024300EDC3CC13CCCD13CDCE13CECF13CF0470CF
:07025300F030D5DE0202A429
:10025A00E9D2E7C933E833F892D5EDD2E7CD33ECEA
:07026A0033FC5002B2D52263
:10027100EC30E7100FBF000C0EBE00080DBD0004EE
:100281000BEB6014A2D5EB13FCED92E7FD2274FF9A
:10029100FCFDFEFF22E480F8A2D574FF13FC7D80F3
:0302A100E480EF07
:030000000206F203
:0C06F200787FE4F6D8FD758124020739FA
:0E02A400C3E49FFFE49EFEE49DFDE49CFC226B
:1006FE0002077EE493A3F8E493A34003F68001F28D
:10070E0008DFF48029E493A3F85407240CC8C333FC
:10071E00C4540F4420C8834004F456800146F6DFCB
:10072E00E4800B01020408102040809007C0E47E94
:10073E00019360BCA3FF543F30E509541FFEE493C0
:10074E00A360010ECF54C025E060A840B8E493A387
:10075E00FAE493A3F8E493A3C8C582C8CAC583CAB2
:10076E00F0A3C8C582C8CAC583CADFE9DEE780BE6A
:0108000000F7
:00000001FF
