:0E07EE00C0F9A4B0999282F88090BFFFC68E29
:100695000923000102030405060708013900013A90
:1006A50000012F000134000235000002210000C1C5
:1006B50000012E14012D00013B00C1020230000093
:0506C500C101012C0041
:0E07E0008D8053A01FEF42A08D8053A01F22DA
:10075C007DFF7F801207E0E4FD7FA01207E07DFFA4
:0A076C007FC01207E07FE00207E003
:080821007F3B7E5ADEFEDFFC86
:0108290022AC
:1003DF00E52F705A75240C75250BAE35AF36FC7DA5
:1003EF00641202A48F26AE35AF367C007D0A12024E
:1003FF00A47C007D0A1202A48D27AE35AF367C0097
:10040F007D0A1202A48D28AE37AF387C007D6412AE
:10041F0002A48F29AE37AF387C007D0A1202A47C6C
:10042F00007D0A1202A48D2AAE37AF38803CE52F2B
:10043F0064017040E53B04F52475250B75260B759B
:10044F00270B75280BAE32AF337C007D641202A4EC
:10045F008F29AE32AF337C007D0A1202A47C007D5F
:10046F000A1202A48D2AAE32AF337C007D0A12022B
:10047F00A48D2B22E52FB4022375240D75250B7542
:10048F00260B75270B75280B75290BE52E75F00AB2
:0D049F0084F52AE52E75F00A8485F02B22E5
:10030700E5B0540FFF640F601DE53970191208211D
:10031700E5B0540FFF640F70030203DEE539600395
:100327000203DE8F3922EF640F60030203DEE53933
:1003370070030203DE120821E5B0540F640F600357
:100347000203DEE53970030203DE24F9607B24FC37
:10035700605824FE603E14707BE52FB4010AE53B2C
:10036700045403F53BFF8057E52F64027066E52EC2
:1003770024F6601124F6601224F66013241E7054CC
:10038700752E0A804F752E14804A752E1E8045E4FF
:10039700F52E8040E52FB4020CE4F52FAD2E7F0437
:1003A700120776802F752F02802AE52FB40102806D
:1003B70020E52F6402601D752F01E4F53BAF3B126A
:1003C70006F77532008F33800BE52F64026005D284
:0703D70000E4F52FE4F53905
:0103DE0022FC
:0D07FC00438E0475D72075D6D1438E102290
:0300630002055B38
:10055B00C0E0C083C082C0D075D000C000C005C051
:03056B0006C007C0
:10056E007EFF9007F9E493FD7FE01207E0AF3A7447
:10057E0001A807088002C333D8FCFD7FC01207E034
:10058E007424253AF8E69007EE93FD7FE01207E01B
:10059E00053AE53AC394084003753A0030022B053C
:1005AE0031E53170020530C394E8E5309403401A0A
:1005BE00753000753100B20130010F052CE52CB4F9
:1005CE000308C202753000753100200106300203A7
:1005DE005306FEE52FB402035306BFE52FB4010305
:0A05EE0053067FAD067F801207E080
:1005F800D007D006D005D000D0D0D082D083D0E0AC
:0106080032BF
:1007C000538EBF53890F758BF4758DFFC28FC28E08
:0107D0002206
:100003007F0AC290758BF4758DFFD28EAE071FEEFB
:10001300600CA290B39290308FFDC28F80EEC28E9F
:10002300E4F58BF58DD28E309103308FFAC28E308A
:100033008F09C28F75350075366322AF8DEFAD8B97
:10004300FCE41201EA7B967A43798B783C120066D2
:070053001202238E358F36E7
:01005A002283
:1004AC0012075C1207FC1207C043AF04D2AF7DDE0B
:1004BC00E4FF120776120821E4FF1206F78F3420AE
:1004CC000003020552C20085353785363812000309
:1004DC00AD36AF2D120776120821E52D045403F525
:1004EC002DD3E536952EE53594005004E4FF804776
:1004FC00C3E536952EFDE5359400FCE41201EA7B4C
:10050C005C7A8F7982783F120066E4FBFA797F7807
:10051C004312016C50047FFF801DC3E536952EFD00
:10052C00E5359400FCE41201EA7B5C7A8F798278E1
:10053C003F12006612022312071F120821E4F52C49
:0F054C00F530F531D2021203071203DF0204CBA0
:04080900D2A07F32C8
:08080D0000AE071FEE70F92296
:0F07D100D2A1120809C2A17F3212080DC2A022C4
:0C081500C2A1120809D2A17F3202080D16
:1007A900C2A0A20392A17F3212080D120809C2A0A9
:0707B900D2A17F3202080DFE
:080790001207D17FA01206CB75
:10079800120809A2A19203C2A07F3212080DA20377
:0107A800222E
:0206CB00AD0779
:1006CD00E4FCC2A07F3212080DED30E704D2A18008
:1006DD0002C2A17F3212080DD2A0ED25E0FD7F32BE
:0906ED0012080D0CBC08DBC2A0D0
:0106F60022E1
:10073F00E4FC120809ED25E0FD30A103430501C2D9
:0C074F00A07F3212080D0CBC08E8AF05BA
:01075B00227B
:10071F00AB071207D17F901206CB1207987F4012BA
:10072F0006CB120798AF031206CB120798020815D3
:10077600AB05AA07120790AF021206CB120798AF75
:0A078600031206CB120798020815B3
:0206F700AB074F
:1006F900120790AF031206CB1207981207D17FA1F8
:100709001206CB12079812073FAD07D2031207A9A9
:05071900120815AF05F8
:01071E0022B8
:10006600EC4D6011E8497017ED33EC3304600DE494
:10007600FCFFFEFD22E933E8330470F802028F121A
:10008600025A58046009E4CC24815006285009021B
:100096000299284003020296C0E0EB4A7044B980F8
:1000A60006D0E0FB020285EF4E701CBD8008EBFF18
:1000B600EAFEE9FD80EBE98DF0A4FEE5F002014FD2
:1000C600E9CDF9EAFEEBFFEF89F0A4FCE5F0CE8975
:1000D600F0A42EFFE435F0CD89F0A42DFEE435F032
:1000E6008067EF4E7005BD80D780C3EF8BF0A4AC60
:1000F600F0EE8BF0A42CFCE435F0F8EF8AF0A42C9B
:10010600E5F038FCE433CB8DF0A42CFCE5F03BF8AD
:10011600EE8AF0A42CFCE5F038F8E433CF89F0A49D
:100126002CFCE5F038CF3400CE89F0A42FFFE5F0A3
:100136003EFEE433C98DF0A42EFEE5F039CD8AF0FB
:10014600A42FFFE5F03EFEE43DFD33D0E0FB500773
:100156000BBB000F020299EC2CFCEF33FFEE33FED3
:06016600ED33FD02027101
:10016C0074F8CC6480CCC86480C8F58204604FC33A
:10017C00EB9FF5F0EA9E42F0E99D42F0E89C45F0D9
:10018C00603C501DE5825FFFE582D313CB5BCBF463
:10019C002B5582FB50280ABA002409B9002008808C
:1001AC001DE5825BFBE582D313CF5FCFF4C3132F26
:1001BC005582FF50090EBE00050DBD00010CC3EBAE
:1001CC009FF5F0EA9E42F0E99D42F0E89C45F06014
:0901DC0007CC4820E701B3EC2236
:1001E50075F020800E75F010800575F0087D007E95
:1001F500007F003392D530D5031202F9EC3340105D
:10020500EF33FFEE33FEED33FDEC33FCD5F0ED229D
:0E021500E5F0247EA2D513CC92E7CDCEFF22D9
:10022300EDD2E7CD33EC3392D524814006E4FFFED3
:10023300FDFC22FCE4CFCECDCC24E0501174FF8032
:10024300EDC3CC13CCCD13CDCE13CECF13CF0470CF
:07025300F030D5DE0202F9D4
:10025A00E9D2E7C933E833F892D5EDD2E7CD33ECEA
:07026A0033FC5002B2D52263
:10027100EC30E7100FBF000C0EBE00080DBD0004EE
:100281000BEB6014A2D5EB13FCED92E7FD2274FF9A
:10029100FCFDFEFF22E480F8A2D574FF13FC7D80F3
:0302A100E480EF07
:03000000020609EC
:0C060900787FE4F6D8FD75813B020650B6
:1002A400BC000BBE0029EF8DF084FFADF022E4CC3E
:1002B400F875F008EF2FFFEE33FEEC33FCEE9DEC07
:1002C400984005FCEE9DFE0FD5F0E9E4CEFD22ED4D
:1002D400F8F5F0EE8420D21CFEADF075F008EF2F97
:1002E400FFED33FD4007985006D5F0F222C398FD88
:0502F4000FD5F0EA2225
:0E02F900C3E49FFFE49EFEE49DFDE49CFC2216
:100615000204ACE493A3F8E493A34003F68001F24B
:1006250008DFF48029E493A3F85407240CC8C333E6
:10063500C4540F4420C8834004F456800146F6DFB5
:10064500E4800B0102040810204080900695E47EAA
:10065500019360BCA3FF543F30E509541FFEE493AA
:10066500A360010ECF54C025E060A840B8E493A371
:10067500FAE493A3F8E493A3C8C582C8CAC583CA9C
:10068500F0A3C8C582C8CAC583CADFE9DEE780BE54
:0106CA00002F
:00000001FF
