:0C073000C0F9A4B0999282F88090BFFF3D
:1005250009280001020304050607080142000A34F0
:10053500000000000000000000000140010143012F
:1005450001310102260000013E00013300022400B2
:1005550000014100013F0B013200C1800121000172
:0505650022000123004B
:08073C007F3B7E5ADEFEDFFC6C
:010744002292
:1003FF00BF011E75290B752A0B752B0B752C0B75F1
:10040F002D0B752E0AE54375F00A84F52FE5438011
:10041F0071EF6402703BE50AC4540FF529E50A54E5
:10042F000FF52AE50830E008752B0A752E0A8006AD
:10043F00752B0B752E0BE509C4540FF52CE50954DC
:10044F000FF52DE508C4540FF52FE508540FF530BF
:10045F0022E5316403703275290AE53375F00A8499
:10046F00F52AE53375F00A8485F02B752C0B752D65
:10047F000B752E0A74342533F8E6FF75F00A84F5F0
:0A048F002FEF75F00A8485F030228B
:0C07240053A01FEF42A08D8053A01F22A5
:1006D2007DFF7F80120724E4FD7FA01207247DFFA7
:0A06E2007FC01207247FE002072406
:10032D00E5B0540FFF640F601DE542701912073CD4
:10033D00E5B0540FFF640F70030203FEE542600346
:10034D000203FE8F4222EF640F60030203FEE542BB
:10035D0070030203FE12073CE5B0540F640F6003F7
:10036D000203FBE54270030203FB24F9604D24FCFC
:10037D00603024FE6010147075E5316403706FD227
:10038D00007531018068E53164037062E533240145
:10039D00FFE433FE7C007D0A1201F58D33E4F53E5A
:1003AD00804CE531640170468543407543017531DC
:1003BD0002F53FF524F525F5418033E531640170F3
:1003CD002DE5437003754301E543B4010575430500
:1003DD00801CE543B4050575431E8012E543B41E2C
:1003ED000575433C8008E543B43C03754301E4F5D2
:0103FD0042BD
:0103FE0022DC
:10071300438E4053890F758B50758DFBC28FD28EDC
:0107230022B3
:03001B0002025886
:10025800C0E0C083C082C0D075D000C000C005C057
:0302680006C007C6
:10026B000521E5216414702EF521AF2204A807089F
:10027B008002C333D8FCFD7FC012072474292522CA
:10028B00F8E690073093FD7FE01207240522E52264
:10029B00B408037522000527E5277002052664883C
:1002AB007004E5266413702CF526F527E53E7009DE
:1002BB007DFF7F80120724801BE52360047DFE8079
:1002CB00027DFF7F80120724E52370047F018002EB
:1002DB007F008F23E53F640B60370525E525700212
:1002EB000524FFAE24BE2729BF10267524007525D3
:1002FB0000E53FB40A0E753E017531037533007589
:10030B003F0B800D0541E541B54006754100753247
:01031B0001E0
:10031C00D007D006D005D000D0D0D082D083D0E08A
:01032C00329E
:1005AC001206D2120713D2AFD2AB12066A12068D04
:1005BC00E5316403600375330AE53260131205708C
:1005CC00120162AE3F053F74342EF8A607E4F532F3
:0A05DC00AF311203FF12032D80D38C
:05056A000308505923B5
:10070000E4FEC297EF1392A3EFC313FFD2970EBE7E
:0207100008F0EF
:0107120022C4
:1006EC00C29300C29700D29300120700AF05120705
:0406FC0000C2932283
:1005E600E4FDC29300C29700D29300120700E4FF15
:1005F600C297EDC313FD30A303430580D2970FBF07
:1006060008EEC29300C293C29700D29700C2A3001D
:05061600D2A300AF05B6
:01061B0022BC
:10066A00E4FD7F8E1206ECAD087F801206ECAD0920
:10067A007F821206ECAD0A7F841206EC7D807F8EA3
:03068A000206EC79
:10068D00E4FD7F8E1206EC7F811205E68F087F83D5
:10069D001205E68F097F851205E68F0A7D807F8E14
:0306AD000206EC56
:100570001206437FCC12061C7F4412061C1206434F
:100580007FCC12061C7FBE12061C1206B08F0B1207
:1005900006B0EF5407FEE50BFFE4AD07AC06120111
:0B05A00029E4FBFA7980783D12001E70
:0105AB00222D
:02061C008F0C41
:10061E00E4F50DC294E50C139294120003D294E506
:10062E000CC313F50C050DE50DC3940840E57F05CD
:05063E007E0002000730
:1006B000E4F50CC294E50DC313F50DD29430940308
:1006C000430D80120003050CE50CC3940840E4AF11
:0106D0000D1C
:0106D1002206
:10064300C201D2947F0C7E00120007C2947F507EB9
:1006530000120007D2947F0A7E00120007A2949230
:0606630001120003A201D8
:01066900226E
:040003007F057E00F7
:100007007C007D0A1201E3EF1FAC0670011E4C70E5
:02001700F622CF
:10001E00EC4D6011E8497017ED33EC3304600DE4DC
:10002E00FCFFFEFD22E933E8330470F80201CE1224
:10003E00019958046009E4CC248150062850090225
:10004E0001D82840030201D5C0E0EB4A7044B980C4
:10005E0006D0E0FB0201C4EF4E701CBD8008EBFF22
:10006E00EAFEE9FD80EBE98DF0A4FEE5F002010762
:10007E00E9CDF9EAFEEBFFEF89F0A4FCE5F0CE89BD
:10008E00F0A42EFFE435F0CD89F0A42DFEE435F07A
:10009E008067EF4E7005BD80D780C3EF8BF0A4ACA8
:1000AE00F0EE8BF0A42CFCE435F0F8EF8AF0A42CE3
:1000BE00E5F038FCE433CB8DF0A42CFCE5F03BF8F6
:1000CE00EE8AF0A42CFCE5F038F8E433CF89F0A4E6
:1000DE002CFCE5F038CF3400CE89F0A42FFFE5F0EC
:1000EE003EFEE433C98DF0A42EFEE5F039CD8AF044
:1000FE00A42FFFE5F03EFEE43DFD33D0E0FB5007BC
:10010E000BBB000F0201D8EC2CFCEF33FFEE33FEDD
:06011E00ED33FD0201B00B
:1001240075F020800E75F010800575F0087D007E56
:10013400007F003392D530D50312024AEC334010CD
:10014400EF33FFEE33FEED33FDEC33FCD5F0ED225F
:0E015400E5F0247EA2D513CC92E7CDCEFF229B
:10016200EDD2E7CD33EC3392D524814006E4FFFE95
:10017200FDFC22FCE4CFCECDCC24E0501174FF80F4
:10018200EDC3CC13CCCD13CDCE13CECF13CF047091
:07019200F030D5DE02024A45
:10019900E9D2E7C933E833F892D5EDD2E7CD33ECAC
:0701A90033FC5002B2D52225
:1001B000EC30E7100FBF000C0EBE00080DBD0004B0
:1001C0000BEB6014A2D5EB13FCED92E7FD2274FF5C
:1001D000FCFDFEFF22E480F8A2D574FF13FC7D80B5
:0301E000E480EFC9
:030000000204995E
:0C049900787FE4F6D8FD7581430204E092
:1001E300EF8DF0A4A8F0CF8CF0A428CE8DF0A42E30
:0201F300FE22EA
:1001F500BC000BBE0029EF8DF084FFADF022E4CCEE
:10020500F875F008EF2FFFEE33FEEC33FCEE9DECB6
:10021500984005FCEE9DFE0FD5F0E9E4CEFD22EDFC
:10022500F8F5F0EE8420D21CFEADF075F008EF2F46
:10023500FFED33FD4007985006D5F0F222C398FD37
:050245000FD5F0EA22D4
:0E024A00C3E49FFFE49EFEE49DFDE49CFC22C5
:1004A5000205ACE493A3F8E493A34003F68001F2BC
:1004B50008DFF48029E493A3F85407240CC8C33358
:1004C500C4540F4420C8834004F456800146F6DF27
:1004D500E4800B0102040810204080900525E47E8D
:1004E500019360BCA3FF543F30E509541FFEE4931C
:1004F500A360010ECF54C025E060A840B8E493A3E3
:10050500FAE493A3F8E493A3C8C582C8CAC583CA0D
:10051500F0A3C8C582C8CAC583CADFE9DEE780BEC5
:01056F00008B
:00000001FF
