:0C09C400C0F9A4B0999282F88090BFFFA7
:1007CC000927000102030405060708033200000094
:1007DC000337000000C103023500000230000001A5
:1007EC003A00012600C1020121000122010123006F
:0807FC0002240000C180C1814C
:10092E00D3EF9400EE940040147D4D7C03ED1D70CA
:0D093E00011CED4C70F7EF1F70E61E80E30A
:01094B002289
:06097800C2037DFF7F8039
:0E097E008D8053A01FEF42A08D8053A01F223A
:10094C0012097AE4FD7FA012097E7DFF7FC0120997
:06095C007E7FE002097E2F
:10024800E5B0540FFF640F6032E521702E7F05FE84
:1002580012092EE5B0540FFF640F700302046B8F70
:1002680021E53A600302046BE526600302046BE5AE
:10027800216407600302046BD20222EF640F60035B
:1002880002046BE521700302046B7F057E001209EE
:100298002EE5B0540FFF300204C20280033003067B
:1002A800120978020468EF640F6003020468E5210C
:1002B80024F9700302044224FC700302040424FE9F
:1002C8007003020356146003020468E53A700AE5F5
:1002D800267006753A01020468E53AB4010AE52673
:1002E8007006753A02020468E53AB4020AE5267017
:1002F80006753A03020468E53A6403600302046879
:10030800E5266003020468F53AE53775F00A84C407
:1003180054F0FFE53775F00A84E5F04FF50AE53843
:1003280075F00A84C454F0FFE53875F00A84E5F0E6
:100338004FF509E53975F00A84C454F0FFE53975BD
:10034800F00A84E5F04FF5081208C6020468E53A99
:100358007039E5267035752601E532C4540F75F0FD
:100368000AA4FFE532540F4FF532E533C4540F7534
:10037800F00AA4FFE533540F4FF533E534C4540FA6
:1003880075F00AA4FFE534540F806CE53A700BE56C
:1003980026B40106752602020468E53A700BE526C4
:1003A800B40206752603020468E53A60030204688D
:1003B800E52664036003020468F526E53275F00A51
:1003C80084C454F0FFE53275F00A84E5F04FF53245
:1003D800E53375F00A84C454F0FFE53375F00A84F8
:1003E800E5F04FF533E53475F00A84C454F0FFE5C1
:1003F8003475F00A84E5F04FF5348064E53A601B03
:10040800B4010B2436F8E66417605506805274363A
:10041800253AF8E6643B6048068045E5266041B425
:10042800010B2431F8E664176036068033743125F1
:1004380026F8E6643B6029068026E53A60092436FA
:10044800F8E6601C168019E5266015B40109243108
:10045800F8E6600C16800974312526F8E660011666
:03046800E4F52197
:01046B00226E
:1009B300438E805389F0758AAE758CFBC28DD28CC1
:0109C3002211
:03000B0002046C80
:10046C00C0E0C083C082C0D075D000C000C005C041
:01047C000778
:10047D000523E523C3941450030205CC7523007D99
:10048D00FF7FC012097E7FE012097E0525E52570EC
:10049D0002052494F4E52494014008752400752583
:1004AD0000B201E53A64016006E526640170313061
:1004BD00012EE52264016005E522B40211E5221446
:1004CD00FF7401A807088002C333D8FC8077E522AA
:1004DD0014FF7401A807088002C333D8FC02056D10
:1004ED00E53A64026006E5266402703030012DE5C0
:1004FD002264046005E522B40511E52214FF7401A0
:10050D00A807088002C333D8FC803AE52214FF7493
:10051D0001A807088002C333D8FC8044E53A640380
:10052D006006E52664037049300146E522640760E4
:10053D0005E522B4081BE52214FF7401A807088005
:10054D0002C333D8FCFD7FC012097E9009CFE48031
:10055D005DE52214FF7401A807088002C333D8FC9F
:10056D00FD7FC012097E74272522F8E69009C4800C
:10057D003D30021CE522B4081714FF7401A80708CA
:10058D008002C333D8FCFD7FC012097E7DC680205A
:10059D00E52214FF7401A807088002C333D8FCFDBF
:1005AD007FC012097E74272522F8E69009C493FDB9
:1005BD007FE012097E0522E522B409037522013080
:1005CD0003410536E53670020535C394D0E5359403
:1005DD000740307535007536003000047DFE800211
:1005ED007DFF7F8012097EB2000531E53170020575
:1005FD0030C39419E5309400400975300075310011
:03060D0012097857
:0F061000D007D005D000D0D0D082D083D0E03238
:10061F0012094C1209B31208C6D2A9D2AF1202485E
:10062F00E53A703AE52670362002331208E9E50AFA
:10063F00C4540FF528E50A540FF529752A0AE50960
:10064F00C4540FF52BE509540FF52C752D0AE50849
:10065F00C4540FF52EE508540FF52F02071CE53A89
:10066F006037200234E53775F00A84F528E53775D1
:10067F00F00A8485F029752A0AE53875F00A84F5A1
:10068F002BE53875F00A8485F02C752D0AE5397540
:10069F00F00A84F52EE5398039E526603E20023BCD
:1006AF00E53275F00A84F528E53275F00A8485F095
:1006BF0029752A0AE53375F00A84F52BE53375F0B1
:1006CF000A8485F02C752D0AE53475F00A84F52E11
:1006DF00E53475F00A8485F02F803230022F12082E
:1006EF000A120152AB07AA0675280B75290B752A3A
:1006FF000B752B0B752C0B7C007D0A1201E58F2DD2
:10070F00AE02AF037C007D0A1201E58D2EE5346544
:10071F0008600302062CE5336509600302062CE529
:10072F0032650A600302062CD203F530F53102065A
:01073F002C8D
:05080400030850592318
:1009A000E4FEC297EF1392A3EFC313FFD2970EBEDC
:0209B00008F04D
:0109B2002222
:10098C00C29300C29700D293001209A0AF051209BE
:04099C00A0C2932240
:10084400E4FDC29300C29700D293001209A0E4FF12
:10085400C297EDC313FD30A303430580D2970FBFA6
:1008640008EEC29300C29700D29700C2A300D2A39D
:0308740000AF05CD
:01087700225E
:1008C600E4FD7F8E12098CAD087F8012098CAD097C
:1008D6007F8212098CAD0A7F8412098C7D807F8EFF
:0308E60002098C78
:1008E900E4FD7F8E12098C7F811208448F087F8373
:1008F9001208448F097F851208448F0AE4FD7F8E10
:0309090002098C54
:10080A0012089F7FCC1208787F4412087812089F3A
:10081A007FCC1208787FBE12087812090C8F0B124F
:10082A00090CEFFEE50BFFE4AD07AC06120119E473
:09083A00FBFA7980783D12000EF2
:010843002292
:020878008F0CE3
:10087A00E4F50DC294E50C139294120962D294E540
:10088A000CC313F50C050DE50DC3940840E57F056F
:05089A007E000209666A
:10090C00E4F50CC294E50DC313F50DD294309403A9
:10091C00430D80120962050CE50CC3940840E4AF4A
:01092C000DBD
:01092D0022A7
:10089F00C204D2947F0C7E00120966C2947F507EF0
:1008AF0000120966D2947F0A7E00120966A2949202
:0608BF0004120962A2040C
:0108C5002210
:040962007F057E008F
:100966007C007D0A1201D3EF1FAC0670011E4C708D
:02097600F62267
:10000E00EC4D6011E8497017ED33EC3304600DE4EC
:10001E00FCFFFEFD22E933E8330470F80201BE1244
:10002E00018958046009E4CC248150062850090245
:10003E0001C82840030201C5C0E0EB4A7044B980F4
:10004E0006D0E0FB0201B4EF4E701CBD8008EBFF42
:10005E00EAFEE9FD80EBE98DF0A4FEE5F00200F783
:10006E00E9CDF9EAFEEBFFEF89F0A4FCE5F0CE89CD
:10007E00F0A42EFFE435F0CD89F0A42DFEE435F08A
:10008E008067EF4E7005BD80D780C3EF8BF0A4ACB8
:10009E00F0EE8BF0A42CFCE435F0F8EF8AF0A42CF3
:1000AE00E5F038FCE433CB8DF0A42CFCE5F03BF806
:1000BE00EE8AF0A42CFCE5F038F8E433CF89F0A4F6
:1000CE002CFCE5F038CF3400CE89F0A42FFFE5F0FC
:1000DE003EFEE433C98DF0A42EFEE5F039CD8AF054
:1000EE00A42FFFE5F03EFEE43DFD33D0E0FB5007CC
:1000FE000BBB000F0201C8EC2CFCEF33FFEE33FEFE
:06010E00ED33FD0201A02B
:1001140075F020800E75F010800575F0087D007E66
:10012400007F003392D530D50312023AEC334010ED
:10013400EF33FFEE33FEED33FDEC33FCD5F0ED226F
:0E014400E5F0247EA2D513CC92E7CDCEFF22AB
:10015200EDD2E7CD33EC3392D524814006E4FFFEA5
:10016200FDFC22FCE4CFCECDCC24E0501174FF8004
:10017200EDC3CC13CCCD13CDCE13CECF13CF0470A1
:07018200F030D5DE02023A65
:10018900E9D2E7C933E833F892D5EDD2E7CD33ECBC
:0701990033FC5002B2D52235
:1001A000EC30E7100FBF000C0EBE00080DBD0004C0
:1001B0000BEB6014A2D5EB13FCED92E7FD2274FF6C
:1001C000FCFDFEFF22E480F8A2D574FF13FC7D80C5
:0301D000E480EFD9
:03000000020740B4
:0C074000787FE4F6D8FD75813A02078747
:1001D300EF8DF0A4A8F0CF8CF0A428CE8DF0A42E40
:0201E300FE22FA
:1001E500BC000BBE0029EF8DF084FFADF022E4CCFE
:1001F500F875F008EF2FFFEE33FEEC33FCEE9DECC7
:10020500984005FCEE9DFE0FD5F0E9E4CEFD22ED0C
:10021500F8F5F0EE8420D21CFEADF075F008EF2F56
:10022500FFED33FD4007985006D5F0F222C398FD47
:050235000FD5F0EA22E4
:0E023A00C3E49FFFE49EFEE49DFDE49CFC22D5
:10074C0002061FE493A3F8E493A34003F68001F29E
:10075C0008DFF48029E493A3F85407240CC8C333AE
:10076C00C4540F4420C8834004F456800146F6DF7D
:10077C00E4800B01020408102040809007CCE47E3A
:10078C00019360BCA3FF543F30E509541FFEE49372
:10079C00A360010ECF54C025E060A840B8E493A339
:1007AC00FAE493A3F8E493A3C8C582C8CAC583CA64
:1007BC00F0A3C8C582C8CAC583CADFE9DEE780BE1C
:0108090000EE
:00000001FF
