:0C030200C0F9A4B0999282F88090BFFF6F
:1002D2000908000B0B0B0B0A060708011600011791
:0402E2000001150101
:080326007F3B7E5ADEFEDFFC86
:01032E0022AC
:0E02E7008D8053A01FEF42A08D8053A01F22D8
:1002A4007DFF7F801202E77FC01202E77FE0120227
:0802B400E7E4FD7FA00202E770
:10016A00E5B0540FFF640F6017E5167013120326EB
:10017A00E5B0540FFF640F6032E516702E8F162219
:10018A00EF640F7026E5166022120326E5B0540FBD
:10019A00FFBF0F17E516601324F9600924FC7008E5
:0B01AA007515018003751503E4F516C0
:0101B5002227
:0D02F500438E0475D72075D6D1438E10229C
:0300630002000395
:10000300C0E0C083C082C0D075D000C000C005C0AE
:1000130007AF177401A807088002C333D8FCFD7F1C
:10002300C01202E774092517F8E690030293FD7FD7
:10003300E01202E70517E517C3940840037517009C
:0F004300D007D005D000D0D0D082D083D0E0320B
:1000F2001202A41202F543AF04D2AF7DEAE4FF126A
:10010200020B1203267F991202BC120326E4FF128D
:1001120001E2AD07ED75F06484F509ED75F00A842E
:1001220075F00A8485F00AED75F00A8485F00B7586
:100132000C0B750D0BAF1512022DAD07AF15120288
:100142002DAD07ED75F0648475F00A8485F00EED2F
:1001520075F00A8475F00A8485F00FED75F00A8453
:0801620085F01012016A80CD46
:04030E00D2A07F05F5
:0803120000AE071FEE70F92296
:0F005200D2A112030EC2A17F05120312C2A02277
:0C031A00C2A112030ED2A17F0502031243
:07024E0012026CAD07D200A3
:10025500C2A0A20092A17F0512031212030EC2A032
:07026500D2A17F0502031284
:0A028900AB071200527F901201B67D
:1002930012030EA2A19200C2A07F05120312A200B4
:0102A3002238
:0201B600AD0793
:1001B800E4FCC2A07F05120312ED30E704D2A1804F
:1001C80002C2A17F05120312D2A0ED25E0FD7F0532
:0901D8001203120CBC08DBC2A0EA
:0101E10022FB
:10026C00E4FC12030EED25E0FD30A103430501C2B1
:0C027C00A07F051203120CBC08E8AF05BF
:010288002253
:10020B00AB05AA071200527FA01201B6120293AFE0
:10021B00021201B6120293AF031201B6120293023D
:02022B00031AB4
:0201E200AB0769
:1001E4001200527FA01201B6120293AF031201B69D
:1001F4001202931200527FA11201B612029312024C
:060204004E12031AAF05C3
:01020A0022D1
:1002BC001202897F401201B6120293AF031201B6EB
:0602CC0012029302031A66
:10022D00120289EB4440FF1201B6120293120052E2
:10023D007F911201B612029312024E12031AAF05EC
:01024D00228E
:0300000002006695
:0C006600787FE4F6D8FD7581200200AD23
:100072000200F2E493A3F8E493A34003F68001F2B2
:1000820008DFF48029E493A3F85407240CC8C3338F
:10009200C4540F4420C8834004F456800146F6DF5E
:1000A200E4800B01020408102040809002D2E47E1A
:1000B200019360BCA3FF543F30E509541FFEE49353
:1000C200A360010ECF54C025E060A840B8E493A31A
:1000D200FAE493A3F8E493A3C8C582C8CAC583CA45
:1000E200F0A3C8C582C8CAC583CADFE9DEE780BEFD
:0102E6000017
:00000001FF
